{
  "_format": "hh3-artifact-1",
  "contractName": "DepositRouter",
  "sourceName": "contracts/DepositRouter.sol",
  "abi": [
    {
      "inputs": [
        {
          "internalType": "address",
          "name": "_usdc",
          "type": "address"
        },
        {
          "internalType": "address",
          "name": "_poolManager",
          "type": "address"
        },
        {
          "internalType": "address",
          "name": "_tokenMessenger",
          "type": "address"
        },
        {
          "internalType": "uint32",
          "name": "_localDomain",
          "type": "uint32"
        }
      ],
      "stateMutability": "nonpayable",
      "type": "constructor"
    },
    {
      "inputs": [],
      "name": "CrossChainFailed",
      "type": "error"
    },
    {
      "inputs": [],
      "name": "InsufficientSwapOutput",
      "type": "error"
    },
    {
      "inputs": [
        {
          "internalType": "address",
          "name": "token",
          "type": "address"
        }
      ],
      "name": "SafeERC20FailedOperation",
      "type": "error"
    },
    {
      "inputs": [
        {
          "internalType": "address",
          "name": "tokenIn",
          "type": "address"
        },
        {
          "components": [
            {
              "components": [
                {
                  "internalType": "Currency",
                  "name": "currency0",
                  "type": "address"
                },
                {
                  "internalType": "Currency",
                  "name": "currency1",
                  "type": "address"
                },
                {
                  "internalType": "uint24",
                  "name": "fee",
                  "type": "uint24"
                },
                {
                  "internalType": "int24",
                  "name": "tickSpacing",
                  "type": "int24"
                },
                {
                  "internalType": "contract IHooks",
                  "name": "hooks",
                  "type": "address"
                }
              ],
              "internalType": "struct PoolKey",
              "name": "poolKey",
              "type": "tuple"
            },
            {
              "internalType": "bool",
              "name": "zeroForOne",
              "type": "bool"
            },
            {
              "internalType": "uint256",
              "name": "amountIn",
              "type": "uint256"
            },
            {
              "internalType": "uint256",
              "name": "minAmountOut",
              "type": "uint256"
            },
            {
              "internalType": "bytes",
              "name": "hookData",
              "type": "bytes"
            }
          ],
          "internalType": "struct IDepositRouter.SwapParams",
          "name": "swapParams",
          "type": "tuple"
        },
        {
          "internalType": "uint32",
          "name": "destinationChainId",
          "type": "uint32"
        },
        {
          "internalType": "address",
          "name": "targetVault",
          "type": "address"
        },
        {
          "internalType": "uint256",
          "name": "minUSDC",
          "type": "uint256"
        }
      ],
      "name": "depositCrossChain",
      "outputs": [],
      "stateMutability": "nonpayable",
      "type": "function"
    },
    {
      "inputs": [
        {
          "internalType": "address",
          "name": "tokenIn",
          "type": "address"
        },
        {
          "components": [
            {
              "components": [
                {
                  "internalType": "Currency",
                  "name": "currency0",
                  "type": "address"
                },
                {
                  "internalType": "Currency",
                  "name": "currency1",
                  "type": "address"
                },
                {
                  "internalType": "uint24",
                  "name": "fee",
                  "type": "uint24"
                },
                {
                  "internalType": "int24",
                  "name": "tickSpacing",
                  "type": "int24"
                },
                {
                  "internalType": "contract IHooks",
                  "name": "hooks",
                  "type": "address"
                }
              ],
              "internalType": "struct PoolKey",
              "name": "poolKey",
              "type": "tuple"
            },
            {
              "internalType": "bool",
              "name": "zeroForOne",
              "type": "bool"
            },
            {
              "internalType": "uint256",
              "name": "amountIn",
              "type": "uint256"
            },
            {
              "internalType": "uint256",
              "name": "minAmountOut",
              "type": "uint256"
            },
            {
              "internalType": "bytes",
              "name": "hookData",
              "type": "bytes"
            }
          ],
          "internalType": "struct IDepositRouter.SwapParams",
          "name": "swapParams",
          "type": "tuple"
        },
        {
          "internalType": "address",
          "name": "vault",
          "type": "address"
        },
        {
          "internalType": "uint256",
          "name": "minShares",
          "type": "uint256"
        }
      ],
      "name": "depositSameChain",
      "outputs": [
        {
          "internalType": "uint256",
          "name": "shares",
          "type": "uint256"
        }
      ],
      "stateMutability": "nonpayable",
      "type": "function"
    },
    {
      "inputs": [],
      "name": "localDomain",
      "outputs": [
        {
          "internalType": "uint32",
          "name": "",
          "type": "uint32"
        }
      ],
      "stateMutability": "view",
      "type": "function"
    },
    {
      "inputs": [],
      "name": "poolManager",
      "outputs": [
        {
          "internalType": "contract IPoolManager",
          "name": "",
          "type": "address"
        }
      ],
      "stateMutability": "view",
      "type": "function"
    },
    {
      "inputs": [],
      "name": "tokenMessenger",
      "outputs": [
        {
          "internalType": "contract ITokenMessenger",
          "name": "",
          "type": "address"
        }
      ],
      "stateMutability": "view",
      "type": "function"
    },
    {
      "inputs": [
        {
          "internalType": "bytes",
          "name": "data",
          "type": "bytes"
        }
      ],
      "name": "unlockCallback",
      "outputs": [
        {
          "internalType": "bytes",
          "name": "",
          "type": "bytes"
        }
      ],
      "stateMutability": "nonpayable",
      "type": "function"
    },
    {
      "inputs": [],
      "name": "usdc",
      "outputs": [
        {
          "internalType": "contract IERC20",
          "name": "",
          "type": "address"
        }
      ],
      "stateMutability": "view",
      "type": "function"
    }
  ],
  "bytecode": "0x610100604052348015610010575f5ffd5b5060405161207738038061207783398181016040528101906100329190610182565b8373ffffffffffffffffffffffffffffffffffffffff1660808173ffffffffffffffffffffffffffffffffffffffff16815250508273ffffffffffffffffffffffffffffffffffffffff1660a08173ffffffffffffffffffffffffffffffffffffffff16815250508173ffffffffffffffffffffffffffffffffffffffff1660c08173ffffffffffffffffffffffffffffffffffffffff16815250508063ffffffff1660e08163ffffffff1681525050505050506101e6565b5f5ffd5b5f73ffffffffffffffffffffffffffffffffffffffff82169050919050565b5f610118826100ef565b9050919050565b6101288161010e565b8114610132575f5ffd5b50565b5f815190506101438161011f565b92915050565b5f63ffffffff82169050919050565b61016181610149565b811461016b575f5ffd5b50565b5f8151905061017c81610158565b92915050565b5f5f5f5f6080858703121561019a576101996100eb565b5b5f6101a787828801610135565b94505060206101b887828801610135565b93505060406101c987828801610135565b92505060606101da8782880161016e565b91505092959194509250565b60805160a05160c05160e051611dfc61027b5f395f6103b901525f8181610199015281816108eb015261098701525f81816103df015281816104c801528181610594015281816105ec0152818161068f015281816106e801528181610a510152610b1e01525f8181610175015281816101f40152818161025c0152818161080d015281816108af01526109c60152611dfc5ff3fe608060405234801561000f575f5ffd5b506004361061007b575f3560e01c80638d3638f4116100595780638d3638f4146100eb57806391dd734614610109578063c27ca3a014610139578063dc4c90d3146101555761007b565b80633e413bee1461007f578063461178301461009d5780638409797f146100bb575b5f5ffd5b610087610173565b6040516100949190610d84565b60405180910390f35b6100a5610197565b6040516100b29190610dbd565b60405180910390f35b6100d560048036038101906100d09190610e78565b6101bb565b6040516100e29190610f07565b60405180910390f35b6100f36103b7565b6040516101009190610f3e565b60405180910390f35b610123600480360381019061011e9190610fb8565b6103db565b6040516101309190611073565b60405180910390f35b610153600480360381019061014e91906110bd565b6107d5565b005b61015d610a4f565b60405161016a9190611170565b60405180910390f35b7f000000000000000000000000000000000000000000000000000000000000000081565b7f000000000000000000000000000000000000000000000000000000000000000081565b5f5f8460c0013590506101f13330838973ffffffffffffffffffffffffffffffffffffffff16610a73909392919063ffffffff16565b5f7f000000000000000000000000000000000000000000000000000000000000000073ffffffffffffffffffffffffffffffffffffffff168773ffffffffffffffffffffffffffffffffffffffff160361024d5781905061025a565b6102578787610af5565b90505b7f000000000000000000000000000000000000000000000000000000000000000073ffffffffffffffffffffffffffffffffffffffff1663095ea7b386836040518363ffffffff1660e01b81526004016102b5929190611198565b6020604051808303815f875af11580156102d1573d5f5f3e3d5ffd5b505050506040513d601f19601f820116820180604052508101906102f591906111f4565b508473ffffffffffffffffffffffffffffffffffffffff16636e553f6582336040518363ffffffff1660e01b815260040161033192919061121f565b6020604051808303815f875af115801561034d573d5f5f3e3d5ffd5b505050506040513d601f19601f82011682018060405250810190610371919061125a565b9250838310156103ad576040517f7716b74300000000000000000000000000000000000000000000000000000000815260040160405180910390fd5b5050949350505050565b7f000000000000000000000000000000000000000000000000000000000000000081565b60607f000000000000000000000000000000000000000000000000000000000000000073ffffffffffffffffffffffffffffffffffffffff163373ffffffffffffffffffffffffffffffffffffffff161461046b576040517f08c379a0000000000000000000000000000000000000000000000000000000008152600401610462906112df565b60405180910390fd5b5f5f848481019061047c919061167f565b915091505f6040518060600160405280846020015115158152602001846040015181526020015f73ffffffffffffffffffffffffffffffffffffffff1681525090505f835f015190505f7f000000000000000000000000000000000000000000000000000000000000000073ffffffffffffffffffffffffffffffffffffffff1663f3cd914c838588608001516040518463ffffffff1660e01b815260040161052793929190611813565b6020604051808303815f875af1158015610543573d5f5f3e3d5ffd5b505050506040513d601f19601f82011682018060405250810190610567919061187b565b90505f61057382610bd8565b600f0b90505f61058283610be4565b600f0b90505f8213156105e2576105dd7f000000000000000000000000000000000000000000000000000000000000000083865f015173ffffffffffffffffffffffffffffffffffffffff16610bf09092919063ffffffff16565b610682565b5f821215610681577f000000000000000000000000000000000000000000000000000000000000000073ffffffffffffffffffffffffffffffffffffffff16630b0d9c09855f01513085610635906118d3565b6040518463ffffffff1660e01b815260040161065393929190611928565b5f604051808303815f87803b15801561066a575f5ffd5b505af115801561067c573d5f5f3e3d5ffd5b505050505b5b5f8113156106de576106d97f000000000000000000000000000000000000000000000000000000000000000082866020015173ffffffffffffffffffffffffffffffffffffffff16610bf09092919063ffffffff16565b61077f565b5f81121561077e577f000000000000000000000000000000000000000000000000000000000000000073ffffffffffffffffffffffffffffffffffffffff16630b0d9c0985602001513084610732906118d3565b6040518463ffffffff1660e01b815260040161075093929190611928565b5f604051808303815f87803b158015610767575f5ffd5b505af1158015610779573d5f5f3e3d5ffd5b505050505b5b5f87602001516107985782610793906118d3565b6107a3565b816107a2906118d3565b5b9050806040516020016107b69190610f07565b6040516020818303038152906040529850505050505050505092915050565b5f8460c00135905061080a3330838973ffffffffffffffffffffffffffffffffffffffff16610a73909392919063ffffffff16565b5f7f000000000000000000000000000000000000000000000000000000000000000073ffffffffffffffffffffffffffffffffffffffff168773ffffffffffffffffffffffffffffffffffffffff160361086657819050610873565b6108708787610af5565b90505b828110156108ad576040517f7716b74300000000000000000000000000000000000000000000000000000000815260040160405180910390fd5b7f000000000000000000000000000000000000000000000000000000000000000073ffffffffffffffffffffffffffffffffffffffff1663095ea7b37f0000000000000000000000000000000000000000000000000000000000000000836040518363ffffffff1660e01b8152600401610928929190611198565b6020604051808303815f875af1158015610944573d5f5f3e3d5ffd5b505050506040513d601f19601f8201168201806040525081019061096891906111f4565b505f8473ffffffffffffffffffffffffffffffffffffffff165f1b90507f000000000000000000000000000000000000000000000000000000000000000073ffffffffffffffffffffffffffffffffffffffff16636fd3504e8388847f00000000000000000000000000000000000000000000000000000000000000006040518563ffffffff1660e01b8152600401610a049493929190611975565b6020604051808303815f875af1158015610a20573d5f5f3e3d5ffd5b505050506040513d601f19601f82011682018060405250810190610a4491906119f5565b505050505050505050565b7f000000000000000000000000000000000000000000000000000000000000000081565b610aef848573ffffffffffffffffffffffffffffffffffffffff166323b872dd868686604051602401610aa893929190611a20565b604051602081830303815290604052915060e01b6020820180517bffffffffffffffffffffffffffffffffffffffffffffffffffffffff8381831617835250505050610c6f565b50505050565b5f5f8233604051602001610b0a929190611cca565b60405160208183030381529060405290505f7f000000000000000000000000000000000000000000000000000000000000000073ffffffffffffffffffffffffffffffffffffffff166348c89491836040518263ffffffff1660e01b8152600401610b759190611073565b5f604051808303815f875af1158015610b90573d5f5f3e3d5ffd5b505050506040513d5f823e3d601f19601f82011682018060405250810190610bb89190611d66565b905080806020019051810190610bce919061125a565b9250505092915050565b5f8160801d9050919050565b5f81600f0b9050919050565b610c6a838473ffffffffffffffffffffffffffffffffffffffff1663a9059cbb8585604051602401610c23929190611198565b604051602081830303815290604052915060e01b6020820180517bffffffffffffffffffffffffffffffffffffffffffffffffffffffff8381831617835250505050610c6f565b505050565b5f5f60205f8451602086015f885af180610c8e576040513d5f823e3d81fd5b3d92505f519150505f8214610ca7576001811415610cc2565b5f8473ffffffffffffffffffffffffffffffffffffffff163b145b15610d0457836040517f5274afe7000000000000000000000000000000000000000000000000000000008152600401610cfb9190611dad565b60405180910390fd5b50505050565b5f73ffffffffffffffffffffffffffffffffffffffff82169050919050565b5f819050919050565b5f610d4c610d47610d4284610d0a565b610d29565b610d0a565b9050919050565b5f610d5d82610d32565b9050919050565b5f610d6e82610d53565b9050919050565b610d7e81610d64565b82525050565b5f602082019050610d975f830184610d75565b92915050565b5f610da782610d53565b9050919050565b610db781610d9d565b82525050565b5f602082019050610dd05f830184610dae565b92915050565b5f604051905090565b5f5ffd5b5f5ffd5b5f610df182610d0a565b9050919050565b610e0181610de7565b8114610e0b575f5ffd5b50565b5f81359050610e1c81610df8565b92915050565b5f5ffd5b5f6101208284031215610e3c57610e3b610e22565b5b81905092915050565b5f819050919050565b610e5781610e45565b8114610e61575f5ffd5b50565b5f81359050610e7281610e4e565b92915050565b5f5f5f5f60808587031215610e9057610e8f610ddf565b5b5f610e9d87828801610e0e565b945050602085013567ffffffffffffffff811115610ebe57610ebd610de3565b5b610eca87828801610e26565b9350506040610edb87828801610e0e565b9250506060610eec87828801610e64565b91505092959194509250565b610f0181610e45565b82525050565b5f602082019050610f1a5f830184610ef8565b92915050565b5f63ffffffff82169050919050565b610f3881610f20565b82525050565b5f602082019050610f515f830184610f2f565b92915050565b5f5ffd5b5f5ffd5b5f5ffd5b5f5f83601f840112610f7857610f77610f57565b5b8235905067ffffffffffffffff811115610f9557610f94610f5b565b5b602083019150836001820283011115610fb157610fb0610f5f565b5b9250929050565b5f5f60208385031215610fce57610fcd610ddf565b5b5f83013567ffffffffffffffff811115610feb57610fea610de3565b5b610ff785828601610f63565b92509250509250929050565b5f81519050919050565b5f82825260208201905092915050565b8281835e5f83830152505050565b5f601f19601f8301169050919050565b5f61104582611003565b61104f818561100d565b935061105f81856020860161101d565b6110688161102b565b840191505092915050565b5f6020820190508181035f83015261108b818461103b565b905092915050565b61109c81610f20565b81146110a6575f5ffd5b50565b5f813590506110b781611093565b92915050565b5f5f5f5f5f60a086880312156110d6576110d5610ddf565b5b5f6110e388828901610e0e565b955050602086013567ffffffffffffffff81111561110457611103610de3565b5b61111088828901610e26565b9450506040611121888289016110a9565b935050606061113288828901610e0e565b925050608061114388828901610e64565b9150509295509295909350565b5f61115a82610d53565b9050919050565b61116a81611150565b82525050565b5f6020820190506111835f830184611161565b92915050565b61119281610de7565b82525050565b5f6040820190506111ab5f830185611189565b6111b86020830184610ef8565b9392505050565b5f8115159050919050565b6111d3816111bf565b81146111dd575f5ffd5b50565b5f815190506111ee816111ca565b92915050565b5f6020828403121561120957611208610ddf565b5b5f611216848285016111e0565b91505092915050565b5f6040820190506112325f830185610ef8565b61123f6020830184611189565b9392505050565b5f8151905061125481610e4e565b92915050565b5f6020828403121561126f5761126e610ddf565b5b5f61127c84828501611246565b91505092915050565b5f82825260208201905092915050565b7f43616c6c6572206e6f7420506f6f6c4d616e61676572000000000000000000005f82015250565b5f6112c9601683611285565b91506112d482611295565b602082019050919050565b5f6020820190508181035f8301526112f6816112bd565b9050919050565b5f5ffd5b7f4e487b71000000000000000000000000000000000000000000000000000000005f52604160045260245ffd5b6113378261102b565b810181811067ffffffffffffffff8211171561135657611355611301565b5b80604052505050565b5f611368610dd6565b9050611374828261132e565b919050565b5f5ffd5b61138681610de7565b8114611390575f5ffd5b50565b5f813590506113a18161137d565b92915050565b5f62ffffff82169050919050565b6113be816113a7565b81146113c8575f5ffd5b50565b5f813590506113d9816113b5565b92915050565b5f8160020b9050919050565b6113f4816113df565b81146113fe575f5ffd5b50565b5f8135905061140f816113eb565b92915050565b5f61141f82610de7565b9050919050565b61142f81611415565b8114611439575f5ffd5b50565b5f8135905061144a81611426565b92915050565b5f60a08284031215611465576114646112fd565b5b61146f60a061135f565b90505f61147e84828501611393565b5f83015250602061149184828501611393565b60208301525060406114a5848285016113cb565b60408301525060606114b984828501611401565b60608301525060806114cd8482850161143c565b60808301525092915050565b5f813590506114e7816111ca565b92915050565b5f5ffd5b5f67ffffffffffffffff82111561150b5761150a611301565b5b6115148261102b565b9050602081019050919050565b828183375f83830152505050565b5f61154161153c846114f1565b61135f565b90508281526020810184848401111561155d5761155c6114ed565b5b611568848285611521565b509392505050565b5f82601f83011261158457611583610f57565b5b813561159484826020860161152f565b91505092915050565b5f61012082840312156115b3576115b26112fd565b5b6115bd60a061135f565b90505f6115cc84828501611450565b5f8301525060a06115df848285016114d9565b60208301525060c06115f384828501610e64565b60408301525060e061160784828501610e64565b60608301525061010082013567ffffffffffffffff81111561162c5761162b611379565b5b61163884828501611570565b60808301525092915050565b5f61164e82610d0a565b9050919050565b61165e81611644565b8114611668575f5ffd5b50565b5f8135905061167981611655565b92915050565b5f5f6040838503121561169557611694610ddf565b5b5f83013567ffffffffffffffff8111156116b2576116b1610de3565b5b6116be8582860161159d565b92505060206116cf8582860161166b565b9150509250929050565b5f6116e382610d53565b9050919050565b6116f3816116d9565b82525050565b611702816113a7565b82525050565b611711816113df565b82525050565b5f61172182610d53565b9050919050565b61173181611717565b82525050565b60a082015f82015161174b5f8501826116ea565b50602082015161175e60208501826116ea565b50604082015161177160408501826116f9565b5060608201516117846060850182611708565b5060808201516117976080850182611728565b50505050565b6117a6816111bf565b82525050565b5f819050919050565b6117be816117ac565b82525050565b6117cd81610d0a565b82525050565b606082015f8201516117e75f85018261179d565b5060208201516117fa60208501826117b5565b50604082015161180d60408501826117c4565b50505050565b5f610120820190506118275f830186611737565b61183460a08301856117d3565b818103610100830152611847818461103b565b9050949350505050565b61185a816117ac565b8114611864575f5ffd5b50565b5f8151905061187581611851565b92915050565b5f602082840312156118905761188f610ddf565b5b5f61189d84828501611867565b91505092915050565b7f4e487b71000000000000000000000000000000000000000000000000000000005f52601160045260245ffd5b5f6118dd826117ac565b91507f8000000000000000000000000000000000000000000000000000000000000000820361190f5761190e6118a6565b5b815f039050919050565b611922816116d9565b82525050565b5f60608201905061193b5f830186611919565b6119486020830185611189565b6119556040830184610ef8565b949350505050565b5f819050919050565b61196f8161195d565b82525050565b5f6080820190506119885f830187610ef8565b6119956020830186610f2f565b6119a26040830185611966565b6119af6060830184611189565b95945050505050565b5f67ffffffffffffffff82169050919050565b6119d4816119b8565b81146119de575f5ffd5b50565b5f815190506119ef816119cb565b92915050565b5f60208284031215611a0a57611a09610ddf565b5b5f611a17848285016119e1565b91505092915050565b5f606082019050611a335f830186611189565b611a406020830185611189565b611a4d6040830184610ef8565b949350505050565b5f82905092915050565b5f611a6d6020840184611393565b905092915050565b5f611a8360208401846113cb565b905092915050565b5f611a996020840184611401565b905092915050565b5f611aaf602084018461143c565b905092915050565b60a08201611ac75f830183611a5f565b611ad35f8501826116ea565b50611ae16020830183611a5f565b611aee60208501826116ea565b50611afc6040830183611a75565b611b0960408501826116f9565b50611b176060830183611a8b565b611b246060850182611708565b50611b326080830183611aa1565b611b3f6080850182611728565b50505050565b5f611b5360208401846114d9565b905092915050565b5f611b696020840184610e64565b905092915050565b611b7a81610e45565b82525050565b5f5ffd5b5f5ffd5b5f5ffd5b5f5f83356001602003843603038112611ba857611ba7611b88565b5b83810192508235915060208301925067ffffffffffffffff821115611bd057611bcf611b80565b5b600182023603831315611be657611be5611b84565b5b509250929050565b5f82825260208201905092915050565b5f611c098385611bee565b9350611c16838584611521565b611c1f8361102b565b840190509392505050565b5f6101208301611c3c5f840184611a55565b611c485f860182611ab7565b50611c5660a0840184611b45565b611c6360a086018261179d565b50611c7160c0840184611b5b565b611c7e60c0860182611b71565b50611c8c60e0840184611b5b565b611c9960e0860182611b71565b50611ca8610100840184611b8c565b858303610100870152611cbc838284611bfe565b925050508091505092915050565b5f6040820190508181035f830152611ce28185611c2a565b9050611cf16020830184611189565b9392505050565b5f611d0a611d05846114f1565b61135f565b905082815260208101848484011115611d2657611d256114ed565b5b611d3184828561101d565b509392505050565b5f82601f830112611d4d57611d4c610f57565b5b8151611d5d848260208601611cf8565b91505092915050565b5f60208284031215611d7b57611d7a610ddf565b5b5f82015167ffffffffffffffff811115611d9857611d97610de3565b5b611da484828501611d39565b91505092915050565b5f602082019050611dc05f830184611189565b9291505056fea2646970667358221220732b70909c3e3d1979337b4470c3ecbb0a778c63d588670170d62e26bc43a3fc64736f6c634300081c0033",
  "linkReferences": {},
  "deployedLinkReferences": {},
  "immutableReferences": {
    "7738": [
      {
        "length": 32,
        "start": 373
      },
      {
        "length": 32,
        "start": 500
      },
      {
        "length": 32,
        "start": 604
      },
      {
        "length": 32,
        "start": 2061
      },
      {
        "length": 32,
        "start": 2223
      },
      {
        "length": 32,
        "start": 2502
      }
    ],
    "7741": [
      {
        "length": 32,
        "start": 991
      },
      {
        "length": 32,
        "start": 1224
      },
      {
        "length": 32,
        "start": 1428
      },
      {
        "length": 32,
        "start": 1516
      },
      {
        "length": 32,
        "start": 1679
      },
      {
        "length": 32,
        "start": 1768
      },
      {
        "length": 32,
        "start": 2641
      },
      {
        "length": 32,
        "start": 2846
      }
    ],
    "7744": [
      {
        "length": 32,
        "start": 409
      },
      {
        "length": 32,
        "start": 2283
      },
      {
        "length": 32,
        "start": 2439
      }
    ],
    "7746": [
      {
        "length": 32,
        "start": 953
      }
    ]
  },
  "inputSourceName": "project/contracts/DepositRouter.sol",
  "buildInfoId": "solc-0_8_28-fb0be2818cc61b16db2f8dd24da1e2fe22fc7102"
}