{
  "_format": "hh3-artifact-1",
  "contractName": "Vault",
  "sourceName": "contracts/Vault.sol",
  "abi": [
    {
      "inputs": [
        {
          "internalType": "contract IERC20",
          "name": "_asset",
          "type": "address"
        },
        {
          "internalType": "string",
          "name": "_name",
          "type": "string"
        },
        {
          "internalType": "string",
          "name": "_symbol",
          "type": "string"
        },
        {
          "internalType": "address",
          "name": "_registry",
          "type": "address"
        }
      ],
      "stateMutability": "nonpayable",
      "type": "constructor"
    },
    {
      "inputs": [
        {
          "internalType": "address",
          "name": "spender",
          "type": "address"
        },
        {
          "internalType": "uint256",
          "name": "allowance",
          "type": "uint256"
        },
        {
          "internalType": "uint256",
          "name": "needed",
          "type": "uint256"
        }
      ],
      "name": "ERC20InsufficientAllowance",
      "type": "error"
    },
    {
      "inputs": [
        {
          "internalType": "address",
          "name": "sender",
          "type": "address"
        },
        {
          "internalType": "uint256",
          "name": "balance",
          "type": "uint256"
        },
        {
          "internalType": "uint256",
          "name": "needed",
          "type": "uint256"
        }
      ],
      "name": "ERC20InsufficientBalance",
      "type": "error"
    },
    {
      "inputs": [
        {
          "internalType": "address",
          "name": "approver",
          "type": "address"
        }
      ],
      "name": "ERC20InvalidApprover",
      "type": "error"
    },
    {
      "inputs": [
        {
          "internalType": "address",
          "name": "receiver",
          "type": "address"
        }
      ],
      "name": "ERC20InvalidReceiver",
      "type": "error"
    },
    {
      "inputs": [
        {
          "internalType": "address",
          "name": "sender",
          "type": "address"
        }
      ],
      "name": "ERC20InvalidSender",
      "type": "error"
    },
    {
      "inputs": [
        {
          "internalType": "address",
          "name": "spender",
          "type": "address"
        }
      ],
      "name": "ERC20InvalidSpender",
      "type": "error"
    },
    {
      "inputs": [
        {
          "internalType": "address",
          "name": "receiver",
          "type": "address"
        },
        {
          "internalType": "uint256",
          "name": "assets",
          "type": "uint256"
        },
        {
          "internalType": "uint256",
          "name": "max",
          "type": "uint256"
        }
      ],
      "name": "ERC4626ExceededMaxDeposit",
      "type": "error"
    },
    {
      "inputs": [
        {
          "internalType": "address",
          "name": "receiver",
          "type": "address"
        },
        {
          "internalType": "uint256",
          "name": "shares",
          "type": "uint256"
        },
        {
          "internalType": "uint256",
          "name": "max",
          "type": "uint256"
        }
      ],
      "name": "ERC4626ExceededMaxMint",
      "type": "error"
    },
    {
      "inputs": [
        {
          "internalType": "address",
          "name": "owner",
          "type": "address"
        },
        {
          "internalType": "uint256",
          "name": "shares",
          "type": "uint256"
        },
        {
          "internalType": "uint256",
          "name": "max",
          "type": "uint256"
        }
      ],
      "name": "ERC4626ExceededMaxRedeem",
      "type": "error"
    },
    {
      "inputs": [
        {
          "internalType": "address",
          "name": "owner",
          "type": "address"
        },
        {
          "internalType": "uint256",
          "name": "assets",
          "type": "uint256"
        },
        {
          "internalType": "uint256",
          "name": "max",
          "type": "uint256"
        }
      ],
      "name": "ERC4626ExceededMaxWithdraw",
      "type": "error"
    },
    {
      "inputs": [],
      "name": "InvalidStrategy",
      "type": "error"
    },
    {
      "inputs": [
        {
          "internalType": "address",
          "name": "owner",
          "type": "address"
        }
      ],
      "name": "OwnableInvalidOwner",
      "type": "error"
    },
    {
      "inputs": [
        {
          "internalType": "address",
          "name": "account",
          "type": "address"
        }
      ],
      "name": "OwnableUnauthorizedAccount",
      "type": "error"
    },
    {
      "inputs": [
        {
          "internalType": "address",
          "name": "token",
          "type": "address"
        }
      ],
      "name": "SafeERC20FailedOperation",
      "type": "error"
    },
    {
      "inputs": [],
      "name": "StrategyCallFailed",
      "type": "error"
    },
    {
      "inputs": [],
      "name": "UnauthorizedAgent",
      "type": "error"
    },
    {
      "anonymous": false,
      "inputs": [
        {
          "indexed": true,
          "internalType": "address",
          "name": "strategy",
          "type": "address"
        },
        {
          "indexed": false,
          "internalType": "uint256",
          "name": "amount",
          "type": "uint256"
        }
      ],
      "name": "Allocated",
      "type": "event"
    },
    {
      "anonymous": false,
      "inputs": [
        {
          "indexed": true,
          "internalType": "address",
          "name": "owner",
          "type": "address"
        },
        {
          "indexed": true,
          "internalType": "address",
          "name": "spender",
          "type": "address"
        },
        {
          "indexed": false,
          "internalType": "uint256",
          "name": "value",
          "type": "uint256"
        }
      ],
      "name": "Approval",
      "type": "event"
    },
    {
      "anonymous": false,
      "inputs": [
        {
          "indexed": true,
          "internalType": "address",
          "name": "strategy",
          "type": "address"
        },
        {
          "indexed": false,
          "internalType": "uint256",
          "name": "amount",
          "type": "uint256"
        }
      ],
      "name": "Deallocated",
      "type": "event"
    },
    {
      "anonymous": false,
      "inputs": [
        {
          "indexed": true,
          "internalType": "address",
          "name": "sender",
          "type": "address"
        },
        {
          "indexed": true,
          "internalType": "address",
          "name": "owner",
          "type": "address"
        },
        {
          "indexed": false,
          "internalType": "uint256",
          "name": "assets",
          "type": "uint256"
        },
        {
          "indexed": false,
          "internalType": "uint256",
          "name": "shares",
          "type": "uint256"
        }
      ],
      "name": "Deposit",
      "type": "event"
    },
    {
      "anonymous": false,
      "inputs": [
        {
          "indexed": true,
          "internalType": "address",
          "name": "previousOwner",
          "type": "address"
        },
        {
          "indexed": true,
          "internalType": "address",
          "name": "newOwner",
          "type": "address"
        }
      ],
      "name": "OwnershipTransferred",
      "type": "event"
    },
    {
      "anonymous": false,
      "inputs": [
        {
          "indexed": true,
          "internalType": "address",
          "name": "strategy",
          "type": "address"
        },
        {
          "indexed": false,
          "internalType": "bytes4",
          "name": "selector",
          "type": "bytes4"
        }
      ],
      "name": "StrategyCalled",
      "type": "event"
    },
    {
      "anonymous": false,
      "inputs": [
        {
          "indexed": true,
          "internalType": "address",
          "name": "from",
          "type": "address"
        },
        {
          "indexed": true,
          "internalType": "address",
          "name": "to",
          "type": "address"
        },
        {
          "indexed": false,
          "internalType": "uint256",
          "name": "value",
          "type": "uint256"
        }
      ],
      "name": "Transfer",
      "type": "event"
    },
    {
      "anonymous": false,
      "inputs": [
        {
          "indexed": true,
          "internalType": "address",
          "name": "sender",
          "type": "address"
        },
        {
          "indexed": true,
          "internalType": "address",
          "name": "receiver",
          "type": "address"
        },
        {
          "indexed": true,
          "internalType": "address",
          "name": "owner",
          "type": "address"
        },
        {
          "indexed": false,
          "internalType": "uint256",
          "name": "assets",
          "type": "uint256"
        },
        {
          "indexed": false,
          "internalType": "uint256",
          "name": "shares",
          "type": "uint256"
        }
      ],
      "name": "Withdraw",
      "type": "event"
    },
    {
      "inputs": [
        {
          "internalType": "address",
          "name": "strategy",
          "type": "address"
        },
        {
          "internalType": "uint256",
          "name": "amount",
          "type": "uint256"
        }
      ],
      "name": "allocate",
      "outputs": [],
      "stateMutability": "nonpayable",
      "type": "function"
    },
    {
      "inputs": [
        {
          "internalType": "address",
          "name": "owner",
          "type": "address"
        },
        {
          "internalType": "address",
          "name": "spender",
          "type": "address"
        }
      ],
      "name": "allowance",
      "outputs": [
        {
          "internalType": "uint256",
          "name": "",
          "type": "uint256"
        }
      ],
      "stateMutability": "view",
      "type": "function"
    },
    {
      "inputs": [
        {
          "internalType": "address",
          "name": "spender",
          "type": "address"
        },
        {
          "internalType": "uint256",
          "name": "value",
          "type": "uint256"
        }
      ],
      "name": "approve",
      "outputs": [
        {
          "internalType": "bool",
          "name": "",
          "type": "bool"
        }
      ],
      "stateMutability": "nonpayable",
      "type": "function"
    },
    {
      "inputs": [],
      "name": "asset",
      "outputs": [
        {
          "internalType": "address",
          "name": "",
          "type": "address"
        }
      ],
      "stateMutability": "view",
      "type": "function"
    },
    {
      "inputs": [
        {
          "internalType": "address",
          "name": "account",
          "type": "address"
        }
      ],
      "name": "balanceOf",
      "outputs": [
        {
          "internalType": "uint256",
          "name": "",
          "type": "uint256"
        }
      ],
      "stateMutability": "view",
      "type": "function"
    },
    {
      "inputs": [
        {
          "internalType": "address",
          "name": "strategy",
          "type": "address"
        },
        {
          "internalType": "bytes",
          "name": "data",
          "type": "bytes"
        }
      ],
      "name": "callStrategy",
      "outputs": [],
      "stateMutability": "nonpayable",
      "type": "function"
    },
    {
      "inputs": [
        {
          "internalType": "uint256",
          "name": "shares",
          "type": "uint256"
        }
      ],
      "name": "convertToAssets",
      "outputs": [
        {
          "internalType": "uint256",
          "name": "",
          "type": "uint256"
        }
      ],
      "stateMutability": "view",
      "type": "function"
    },
    {
      "inputs": [
        {
          "internalType": "uint256",
          "name": "assets",
          "type": "uint256"
        }
      ],
      "name": "convertToShares",
      "outputs": [
        {
          "internalType": "uint256",
          "name": "",
          "type": "uint256"
        }
      ],
      "stateMutability": "view",
      "type": "function"
    },
    {
      "inputs": [
        {
          "internalType": "address",
          "name": "strategy",
          "type": "address"
        },
        {
          "internalType": "uint256",
          "name": "amount",
          "type": "uint256"
        }
      ],
      "name": "deallocate",
      "outputs": [],
      "stateMutability": "nonpayable",
      "type": "function"
    },
    {
      "inputs": [],
      "name": "decimals",
      "outputs": [
        {
          "internalType": "uint8",
          "name": "",
          "type": "uint8"
        }
      ],
      "stateMutability": "view",
      "type": "function"
    },
    {
      "inputs": [
        {
          "internalType": "uint256",
          "name": "assets",
          "type": "uint256"
        },
        {
          "internalType": "address",
          "name": "receiver",
          "type": "address"
        }
      ],
      "name": "deposit",
      "outputs": [
        {
          "internalType": "uint256",
          "name": "",
          "type": "uint256"
        }
      ],
      "stateMutability": "nonpayable",
      "type": "function"
    },
    {
      "inputs": [
        {
          "internalType": "address",
          "name": "strategy",
          "type": "address"
        }
      ],
      "name": "getStrategyAssets",
      "outputs": [
        {
          "internalType": "uint256",
          "name": "",
          "type": "uint256"
        }
      ],
      "stateMutability": "view",
      "type": "function"
    },
    {
      "inputs": [
        {
          "internalType": "address",
          "name": "",
          "type": "address"
        }
      ],
      "name": "isStrategyWhitelisted",
      "outputs": [
        {
          "internalType": "bool",
          "name": "",
          "type": "bool"
        }
      ],
      "stateMutability": "view",
      "type": "function"
    },
    {
      "inputs": [
        {
          "internalType": "address",
          "name": "",
          "type": "address"
        }
      ],
      "name": "maxDeposit",
      "outputs": [
        {
          "internalType": "uint256",
          "name": "",
          "type": "uint256"
        }
      ],
      "stateMutability": "view",
      "type": "function"
    },
    {
      "inputs": [
        {
          "internalType": "address",
          "name": "",
          "type": "address"
        }
      ],
      "name": "maxMint",
      "outputs": [
        {
          "internalType": "uint256",
          "name": "",
          "type": "uint256"
        }
      ],
      "stateMutability": "view",
      "type": "function"
    },
    {
      "inputs": [
        {
          "internalType": "address",
          "name": "owner",
          "type": "address"
        }
      ],
      "name": "maxRedeem",
      "outputs": [
        {
          "internalType": "uint256",
          "name": "",
          "type": "uint256"
        }
      ],
      "stateMutability": "view",
      "type": "function"
    },
    {
      "inputs": [
        {
          "internalType": "address",
          "name": "owner",
          "type": "address"
        }
      ],
      "name": "maxWithdraw",
      "outputs": [
        {
          "internalType": "uint256",
          "name": "",
          "type": "uint256"
        }
      ],
      "stateMutability": "view",
      "type": "function"
    },
    {
      "inputs": [
        {
          "internalType": "uint256",
          "name": "shares",
          "type": "uint256"
        },
        {
          "internalType": "address",
          "name": "receiver",
          "type": "address"
        }
      ],
      "name": "mint",
      "outputs": [
        {
          "internalType": "uint256",
          "name": "",
          "type": "uint256"
        }
      ],
      "stateMutability": "nonpayable",
      "type": "function"
    },
    {
      "inputs": [],
      "name": "name",
      "outputs": [
        {
          "internalType": "string",
          "name": "",
          "type": "string"
        }
      ],
      "stateMutability": "view",
      "type": "function"
    },
    {
      "inputs": [],
      "name": "owner",
      "outputs": [
        {
          "internalType": "address",
          "name": "",
          "type": "address"
        }
      ],
      "stateMutability": "view",
      "type": "function"
    },
    {
      "inputs": [
        {
          "internalType": "uint256",
          "name": "assets",
          "type": "uint256"
        }
      ],
      "name": "previewDeposit",
      "outputs": [
        {
          "internalType": "uint256",
          "name": "",
          "type": "uint256"
        }
      ],
      "stateMutability": "view",
      "type": "function"
    },
    {
      "inputs": [
        {
          "internalType": "uint256",
          "name": "shares",
          "type": "uint256"
        }
      ],
      "name": "previewMint",
      "outputs": [
        {
          "internalType": "uint256",
          "name": "",
          "type": "uint256"
        }
      ],
      "stateMutability": "view",
      "type": "function"
    },
    {
      "inputs": [
        {
          "internalType": "uint256",
          "name": "shares",
          "type": "uint256"
        }
      ],
      "name": "previewRedeem",
      "outputs": [
        {
          "internalType": "uint256",
          "name": "",
          "type": "uint256"
        }
      ],
      "stateMutability": "view",
      "type": "function"
    },
    {
      "inputs": [
        {
          "internalType": "uint256",
          "name": "assets",
          "type": "uint256"
        }
      ],
      "name": "previewWithdraw",
      "outputs": [
        {
          "internalType": "uint256",
          "name": "",
          "type": "uint256"
        }
      ],
      "stateMutability": "view",
      "type": "function"
    },
    {
      "inputs": [
        {
          "internalType": "uint256",
          "name": "shares",
          "type": "uint256"
        },
        {
          "internalType": "address",
          "name": "receiver",
          "type": "address"
        },
        {
          "internalType": "address",
          "name": "owner",
          "type": "address"
        }
      ],
      "name": "redeem",
      "outputs": [
        {
          "internalType": "uint256",
          "name": "",
          "type": "uint256"
        }
      ],
      "stateMutability": "nonpayable",
      "type": "function"
    },
    {
      "inputs": [],
      "name": "registry",
      "outputs": [
        {
          "internalType": "contract IAgentRegistry",
          "name": "",
          "type": "address"
        }
      ],
      "stateMutability": "view",
      "type": "function"
    },
    {
      "inputs": [],
      "name": "renounceOwnership",
      "outputs": [],
      "stateMutability": "nonpayable",
      "type": "function"
    },
    {
      "inputs": [
        {
          "internalType": "address",
          "name": "strategy",
          "type": "address"
        },
        {
          "internalType": "bool",
          "name": "allowed",
          "type": "bool"
        }
      ],
      "name": "setStrategyWhitelist",
      "outputs": [],
      "stateMutability": "nonpayable",
      "type": "function"
    },
    {
      "inputs": [
        {
          "internalType": "address",
          "name": "",
          "type": "address"
        }
      ],
      "name": "strategyAssets",
      "outputs": [
        {
          "internalType": "uint256",
          "name": "",
          "type": "uint256"
        }
      ],
      "stateMutability": "view",
      "type": "function"
    },
    {
      "inputs": [],
      "name": "symbol",
      "outputs": [
        {
          "internalType": "string",
          "name": "",
          "type": "string"
        }
      ],
      "stateMutability": "view",
      "type": "function"
    },
    {
      "inputs": [],
      "name": "totalAssets",
      "outputs": [
        {
          "internalType": "uint256",
          "name": "",
          "type": "uint256"
        }
      ],
      "stateMutability": "view",
      "type": "function"
    },
    {
      "inputs": [],
      "name": "totalSupply",
      "outputs": [
        {
          "internalType": "uint256",
          "name": "",
          "type": "uint256"
        }
      ],
      "stateMutability": "view",
      "type": "function"
    },
    {
      "inputs": [
        {
          "internalType": "address",
          "name": "to",
          "type": "address"
        },
        {
          "internalType": "uint256",
          "name": "value",
          "type": "uint256"
        }
      ],
      "name": "transfer",
      "outputs": [
        {
          "internalType": "bool",
          "name": "",
          "type": "bool"
        }
      ],
      "stateMutability": "nonpayable",
      "type": "function"
    },
    {
      "inputs": [
        {
          "internalType": "address",
          "name": "from",
          "type": "address"
        },
        {
          "internalType": "address",
          "name": "to",
          "type": "address"
        },
        {
          "internalType": "uint256",
          "name": "value",
          "type": "uint256"
        }
      ],
      "name": "transferFrom",
      "outputs": [
        {
          "internalType": "bool",
          "name": "",
          "type": "bool"
        }
      ],
      "stateMutability": "nonpayable",
      "type": "function"
    },
    {
      "inputs": [
        {
          "internalType": "address",
          "name": "newOwner",
          "type": "address"
        }
      ],
      "name": "transferOwnership",
      "outputs": [],
      "stateMutability": "nonpayable",
      "type": "function"
    },
    {
      "inputs": [
        {
          "internalType": "uint256",
          "name": "assets",
          "type": "uint256"
        },
        {
          "internalType": "address",
          "name": "receiver",
          "type": "address"
        },
        {
          "internalType": "address",
          "name": "owner",
          "type": "address"
        }
      ],
      "name": "withdraw",
      "outputs": [
        {
          "internalType": "uint256",
          "name": "",
          "type": "uint256"
        }
      ],
      "stateMutability": "nonpayable",
      "type": "function"
    }
  ],
  "bytecode": "0x60e060405234801561000f575f5ffd5b50604051613a13380380613a1383398181016040528101906100319190610529565b33848484816003908161004491906107d5565b50806004908161005491906107d5565b5050505f5f6100688361017b60201b60201c565b915091508161007857601261007a565b805b60ff1660a08160ff16815250508273ffffffffffffffffffffffffffffffffffffffff1660808173ffffffffffffffffffffffffffffffffffffffff16815250505050505f73ffffffffffffffffffffffffffffffffffffffff168173ffffffffffffffffffffffffffffffffffffffff160361012e575f6040517f1e4fbdf700000000000000000000000000000000000000000000000000000000815260040161012591906108b3565b60405180910390fd5b61013d8161028460201b60201c565b508073ffffffffffffffffffffffffffffffffffffffff1660c08173ffffffffffffffffffffffffffffffffffffffff16815250505050505061097b565b5f5f5f5f8473ffffffffffffffffffffffffffffffffffffffff1660405160240160405160208183030381529060405263313ce56760e01b6020820180517bffffffffffffffffffffffffffffffffffffffffffffffffffffffff83818316178352505050506040516101ee9190610910565b5f60405180830381855afa9150503d805f8114610226576040519150601f19603f3d011682016040523d82523d5f602084013e61022b565b606091505b509150915081801561023f57506020815110155b15610276575f818060200190518101906102599190610950565b905060ff80168111610274576001819450945050505061027f565b505b5f5f9350935050505b915091565b5f60055f9054906101000a900473ffffffffffffffffffffffffffffffffffffffff1690508160055f6101000a81548173ffffffffffffffffffffffffffffffffffffffff021916908373ffffffffffffffffffffffffffffffffffffffff1602179055508173ffffffffffffffffffffffffffffffffffffffff168173ffffffffffffffffffffffffffffffffffffffff167f8be0079c531659141344cd1fd0a4f28419497f9722a3daafe3b4186f6b6457e060405160405180910390a35050565b5f604051905090565b5f5ffd5b5f5ffd5b5f73ffffffffffffffffffffffffffffffffffffffff82169050919050565b5f61038182610358565b9050919050565b5f61039282610377565b9050919050565b6103a281610388565b81146103ac575f5ffd5b50565b5f815190506103bd81610399565b92915050565b5f5ffd5b5f5ffd5b5f601f19601f8301169050919050565b7f4e487b71000000000000000000000000000000000000000000000000000000005f52604160045260245ffd5b610411826103cb565b810181811067ffffffffffffffff821117156104305761042f6103db565b5b80604052505050565b5f610442610347565b905061044e8282610408565b919050565b5f67ffffffffffffffff82111561046d5761046c6103db565b5b610476826103cb565b9050602081019050919050565b8281835e5f83830152505050565b5f6104a361049e84610453565b610439565b9050828152602081018484840111156104bf576104be6103c7565b5b6104ca848285610483565b509392505050565b5f82601f8301126104e6576104e56103c3565b5b81516104f6848260208601610491565b91505092915050565b61050881610377565b8114610512575f5ffd5b50565b5f81519050610523816104ff565b92915050565b5f5f5f5f6080858703121561054157610540610350565b5b5f61054e878288016103af565b945050602085015167ffffffffffffffff81111561056f5761056e610354565b5b61057b878288016104d2565b935050604085015167ffffffffffffffff81111561059c5761059b610354565b5b6105a8878288016104d2565b92505060606105b987828801610515565b91505092959194509250565b5f81519050919050565b7f4e487b71000000000000000000000000000000000000000000000000000000005f52602260045260245ffd5b5f600282049050600182168061061357607f821691505b602082108103610626576106256105cf565b5b50919050565b5f819050815f5260205f209050919050565b5f6020601f8301049050919050565b5f82821b905092915050565b5f600883026106887fffffffffffffffffffffffffffffffffffffffffffffffffffffffffffffffff8261064d565b610692868361064d565b95508019841693508086168417925050509392505050565b5f819050919050565b5f819050919050565b5f6106d66106d16106cc846106aa565b6106b3565b6106aa565b9050919050565b5f819050919050565b6106ef836106bc565b6107036106fb826106dd565b848454610659565b825550505050565b5f5f905090565b61071a61070b565b6107258184846106e6565b505050565b5b818110156107485761073d5f82610712565b60018101905061072b565b5050565b601f82111561078d5761075e8161062c565b6107678461063e565b81016020851015610776578190505b61078a6107828561063e565b83018261072a565b50505b505050565b5f82821c905092915050565b5f6107ad5f1984600802610792565b1980831691505092915050565b5f6107c5838361079e565b9150826002028217905092915050565b6107de826105c5565b67ffffffffffffffff8111156107f7576107f66103db565b5b61080182546105fc565b61080c82828561074c565b5f60209050601f83116001811461083d575f841561082b578287015190505b61083585826107ba565b86555061089c565b601f19841661084b8661062c565b5f5b828110156108725784890151825560018201915060208501945060208101905061084d565b8683101561088f578489015161088b601f89168261079e565b8355505b6001600288020188555050505b505050505050565b6108ad81610377565b82525050565b5f6020820190506108c65f8301846108a4565b92915050565b5f81519050919050565b5f81905092915050565b5f6108ea826108cc565b6108f481856108d6565b9350610904818560208601610483565b80840191505092915050565b5f61091b82846108e0565b915081905092915050565b61092f816106aa565b8114610939575f5ffd5b50565b5f8151905061094a81610926565b92915050565b5f6020828403121561096557610964610350565b5b5f6109728482850161093c565b91505092915050565b60805160a05160c0516130596109ba5f395f8181610a2901528181610cf701528181610f11015261127001525f61091701525f61094801526130595ff3fe608060405234801561000f575f5ffd5b506004361061021a575f3560e01c806394bf804d11610123578063ba087652116100ab578063d02b733c1161007a578063d02b733c146106e8578063d905777e14610718578063dd62ed3e14610748578063ef8b30f714610778578063f2fde38b146107a85761021a565b8063ba08765214610628578063c63d75b614610658578063c6e6f59214610688578063ce96cb77146106b85761021a565b80639b7e2f77116100f25780639b7e2f7714610560578063a9059cbb1461057c578063b3d7f6b9146105ac578063b460af94146105dc578063b78b52df1461060c5761021a565b806394bf804d146104c657806395d89b41146104f6578063999ba27c146105145780639aa2936b146105445761021a565b806338d52e0f116101a65780636e553f65116101755780636e553f651461042057806370a0823114610450578063715018a6146104805780637b1039991461048a5780638da5cb5b146104a85761021a565b806338d52e0f14610386578063402d267d146103a45780634cdad506146103d457806359db9eb0146104045761021a565b80630a28a477116101ed5780630a28a477146102ba5780631041cc64146102ea57806318160ddd1461031a57806323b872dd14610338578063313ce567146103685761021a565b806301e1d1141461021e57806306fdde031461023c57806307a2d13a1461025a578063095ea7b31461028a575b5f5ffd5b6102266107c4565b60405161023391906124d7565b60405180910390f35b6102446107e9565b6040516102519190612560565b60405180910390f35b610274600480360381019061026f91906125b2565b610879565b60405161028191906124d7565b60405180910390f35b6102a4600480360381019061029f9190612637565b61088b565b6040516102b1919061268f565b60405180910390f35b6102d460048036038101906102cf91906125b2565b6108ad565b6040516102e191906124d7565b60405180910390f35b61030460048036038101906102ff91906126a8565b6108c0565b60405161031191906124d7565b60405180910390f35b6103226108d5565b60405161032f91906124d7565b60405180910390f35b610352600480360381019061034d91906126d3565b6108de565b60405161035f919061268f565b60405180910390f35b61037061090c565b60405161037d919061273e565b60405180910390f35b61038e610945565b60405161039b9190612766565b60405180910390f35b6103be60048036038101906103b991906126a8565b61096c565b6040516103cb91906124d7565b60405180910390f35b6103ee60048036038101906103e991906125b2565b610995565b6040516103fb91906124d7565b60405180910390f35b61041e60048036038101906104199190612637565b6109a7565b005b61043a6004803603810190610435919061277f565b610c1d565b60405161044791906124d7565b60405180910390f35b61046a600480360381019061046591906126a8565b610c9d565b60405161047791906124d7565b60405180910390f35b610488610ce2565b005b610492610cf5565b60405161049f9190612818565b60405180910390f35b6104b0610d19565b6040516104bd9190612766565b60405180910390f35b6104e060048036038101906104db919061277f565b610d41565b6040516104ed91906124d7565b60405180910390f35b6104fe610dc1565b60405161050b9190612560565b60405180910390f35b61052e600480360381019061052991906126a8565b610e51565b60405161053b919061268f565b60405180910390f35b61055e60048036038101906105599190612892565b610e6e565b005b61057a60048036038101906105759190612919565b6110d7565b005b61059660048036038101906105919190612637565b611137565b6040516105a3919061268f565b60405180910390f35b6105c660048036038101906105c191906125b2565b611159565b6040516105d391906124d7565b60405180910390f35b6105f660048036038101906105f19190612957565b61116c565b60405161060391906124d7565b60405180910390f35b61062660048036038101906106219190612637565b6111ee565b005b610642600480360381019061063d9190612957565b61146d565b60405161064f91906124d7565b60405180910390f35b610672600480360381019061066d91906126a8565b6114ef565b60405161067f91906124d7565b60405180910390f35b6106a2600480360381019061069d91906125b2565b611518565b6040516106af91906124d7565b60405180910390f35b6106d260048036038101906106cd91906126a8565b61152a565b6040516106df91906124d7565b60405180910390f35b61070260048036038101906106fd91906126a8565b611544565b60405161070f91906124d7565b60405180910390f35b610732600480360381019061072d91906126a8565b61158a565b60405161073f91906124d7565b60405180910390f35b610762600480360381019061075d91906129a7565b61159b565b60405161076f91906124d7565b60405180910390f35b610792600480360381019061078d91906125b2565b61161d565b60405161079f91906124d7565b60405180910390f35b6107c260048036038101906107bd91906126a8565b61162f565b005b5f5f6107ce6116b3565b90506107d8611738565b816107e39190612a12565b91505090565b6060600380546107f890612a72565b80601f016020809104026020016040519081016040528092919081815260200182805461082490612a72565b801561086f5780601f106108465761010080835404028352916020019161086f565b820191905f5260205f20905b81548152906001019060200180831161085257829003601f168201915b5050505050905090565b5f610884825f611741565b9050919050565b5f5f610895611799565b90506108a28185856117a0565b600191505092915050565b5f6108b98260016117b2565b9050919050565b6007602052805f5260405f205f915090505481565b5f600254905090565b5f5f6108e8611799565b90506108f585828561180a565b61090085858561189d565b60019150509392505050565b5f61091561198d565b7f00000000000000000000000000000000000000000000000000000000000000006109409190612aa2565b905090565b5f7f0000000000000000000000000000000000000000000000000000000000000000905090565b5f7fffffffffffffffffffffffffffffffffffffffffffffffffffffffffffffffff9050919050565b5f6109a0825f611741565b9050919050565b60065f8373ffffffffffffffffffffffffffffffffffffffff1673ffffffffffffffffffffffffffffffffffffffff1681526020019081526020015f205f9054906101000a900460ff16610a27576040517f4e236e9a00000000000000000000000000000000000000000000000000000000815260040160405180910390fd5b7f000000000000000000000000000000000000000000000000000000000000000073ffffffffffffffffffffffffffffffffffffffff1663e99f5b1633306359db9eb060e01b6040518463ffffffff1660e01b8152600401610a8b93929190612b10565b602060405180830381865afa158015610aa6573d5f5f3e3d5ffd5b505050506040513d601f19601f82011682018060405250810190610aca9190612b59565b610b00576040517f04b0ebd000000000000000000000000000000000000000000000000000000000815260040160405180910390fd5b8173ffffffffffffffffffffffffffffffffffffffff16632e1a7d4d826040518263ffffffff1660e01b8152600401610b3991906124d7565b5f604051808303815f87803b158015610b50575f5ffd5b505af1158015610b62573d5f5f3e3d5ffd5b505050508060075f8473ffffffffffffffffffffffffffffffffffffffff1673ffffffffffffffffffffffffffffffffffffffff1681526020019081526020015f205f828254610bb29190612b84565b92505081905550610bcb81610bc690612bc0565b611994565b8173ffffffffffffffffffffffffffffffffffffffff167fcf25af35f355434c1dce4120416a90ead032734765d0e4f0c8771cee2c91164582604051610c1191906124d7565b60405180910390a25050565b5f5f610c288361096c565b905080841115610c73578284826040517f79012fb2000000000000000000000000000000000000000000000000000000008152600401610c6a93929190612c06565b60405180910390fd5b5f610c7d8561161d565b9050610c92610c8a611799565b8587846119de565b809250505092915050565b5f5f5f8373ffffffffffffffffffffffffffffffffffffffff1673ffffffffffffffffffffffffffffffffffffffff1681526020019081526020015f20549050919050565b610cea611a68565b610cf35f611aef565b565b7f000000000000000000000000000000000000000000000000000000000000000081565b5f60055f9054906101000a900473ffffffffffffffffffffffffffffffffffffffff16905090565b5f5f610d4c836114ef565b905080841115610d97578284826040517f284ff667000000000000000000000000000000000000000000000000000000008152600401610d8e93929190612c06565b60405180910390fd5b5f610da185611159565b9050610db6610dae611799565b8583886119de565b809250505092915050565b606060048054610dd090612a72565b80601f0160208091040260200160405190810160405280929190818152602001828054610dfc90612a72565b8015610e475780601f10610e1e57610100808354040283529160200191610e47565b820191905f5260205f20905b815481529060010190602001808311610e2a57829003601f168201915b5050505050905090565b6006602052805f5260405f205f915054906101000a900460ff1681565b60065f8473ffffffffffffffffffffffffffffffffffffffff1673ffffffffffffffffffffffffffffffffffffffff1681526020019081526020015f205f9054906101000a900460ff16610eee576040517f4e236e9a00000000000000000000000000000000000000000000000000000000815260040160405180910390fd5b5f82825f90600492610f0293929190612c43565b90610f0d9190612c93565b90507f000000000000000000000000000000000000000000000000000000000000000073ffffffffffffffffffffffffffffffffffffffff1663e99f5b163386846040518463ffffffff1660e01b8152600401610f6c93929190612b10565b602060405180830381865afa158015610f87573d5f5f3e3d5ffd5b505050506040513d601f19601f82011682018060405250810190610fab9190612b59565b610fe1576040517f04b0ebd000000000000000000000000000000000000000000000000000000000815260040160405180910390fd5b5f8473ffffffffffffffffffffffffffffffffffffffff168484604051611009929190612d2d565b5f604051808303815f865af19150503d805f8114611042576040519150601f19603f3d011682016040523d82523d5f602084013e611047565b606091505b5050905080611082576040517f59bf660000000000000000000000000000000000000000000000000000000000815260040160405180910390fd5b8473ffffffffffffffffffffffffffffffffffffffff167fd5150bdd36b5a1624664ad57b93bdeccba33f18630e3259302903061a5cfaeec836040516110c89190612d45565b60405180910390a25050505050565b6110df611a68565b8060065f8473ffffffffffffffffffffffffffffffffffffffff1673ffffffffffffffffffffffffffffffffffffffff1681526020019081526020015f205f6101000a81548160ff0219169083151502179055505050565b5f5f611141611799565b905061114e81858561189d565b600191505092915050565b5f611165826001611741565b9050919050565b5f5f6111778361152a565b9050808511156111c2578285826040517ffe9cceec0000000000000000000000000000000000000000000000000000000081526004016111b993929190612c06565b60405180910390fd5b5f6111cc866108ad565b90506111e26111d9611799565b86868985611bb2565b80925050509392505050565b60065f8373ffffffffffffffffffffffffffffffffffffffff1673ffffffffffffffffffffffffffffffffffffffff1681526020019081526020015f205f9054906101000a900460ff1661126e576040517f4e236e9a00000000000000000000000000000000000000000000000000000000815260040160405180910390fd5b7f000000000000000000000000000000000000000000000000000000000000000073ffffffffffffffffffffffffffffffffffffffff1663e99f5b16333063b78b52df60e01b6040518463ffffffff1660e01b81526004016112d293929190612b10565b602060405180830381865afa1580156112ed573d5f5f3e3d5ffd5b505050506040513d601f19601f820116820180604052508101906113119190612b59565b611347576040517f04b0ebd000000000000000000000000000000000000000000000000000000000815260040160405180910390fd5b611359611352610945565b8383611c92565b8060075f8473ffffffffffffffffffffffffffffffffffffffff1673ffffffffffffffffffffffffffffffffffffffff1681526020019081526020015f205f8282546113a59190612a12565b925050819055506113b581611994565b8173ffffffffffffffffffffffffffffffffffffffff1663b6b55f25826040518263ffffffff1660e01b81526004016113ee91906124d7565b5f604051808303815f87803b158015611405575f5ffd5b505af1158015611417573d5f5f3e3d5ffd5b505050508173ffffffffffffffffffffffffffffffffffffffff167f472f36e28bb47edb7c69c9e2ac00a77c66b505df54e9c818ac57110b0629e8c38260405161146191906124d7565b60405180910390a25050565b5f5f6114788361158a565b9050808511156114c3578285826040517fb94abeec0000000000000000000000000000000000000000000000000000000081526004016114ba93929190612c06565b60405180910390fd5b5f6114cd86610995565b90506114e36114da611799565b8686848a611bb2565b80925050509392505050565b5f7fffffffffffffffffffffffffffffffffffffffffffffffffffffffffffffffff9050919050565b5f611523825f6117b2565b9050919050565b5f61153d61153783610c9d565b5f611741565b9050919050565b5f60075f8373ffffffffffffffffffffffffffffffffffffffff1673ffffffffffffffffffffffffffffffffffffffff1681526020019081526020015f20549050919050565b5f61159482610c9d565b9050919050565b5f60015f8473ffffffffffffffffffffffffffffffffffffffff1673ffffffffffffffffffffffffffffffffffffffff1681526020019081526020015f205f8373ffffffffffffffffffffffffffffffffffffffff1673ffffffffffffffffffffffffffffffffffffffff1681526020019081526020015f2054905092915050565b5f611628825f6117b2565b9050919050565b611637611a68565b5f73ffffffffffffffffffffffffffffffffffffffff168173ffffffffffffffffffffffffffffffffffffffff16036116a7575f6040517f1e4fbdf700000000000000000000000000000000000000000000000000000000815260040161169e9190612766565b60405180910390fd5b6116b081611aef565b50565b5f6116bc610945565b73ffffffffffffffffffffffffffffffffffffffff166370a08231306040518263ffffffff1660e01b81526004016116f49190612766565b602060405180830381865afa15801561170f573d5f5f3e3d5ffd5b505050506040513d601f19601f820116820180604052508101906117339190612d72565b905090565b5f600854905090565b5f611791600161174f6107c4565b6117599190612a12565b61176161198d565b600a61176d9190612ecc565b6117756108d5565b61177f9190612a12565b8486611d11909392919063ffffffff16565b905092915050565b5f33905090565b6117ad8383836001611d5e565b505050565b5f6118026117be61198d565b600a6117ca9190612ecc565b6117d26108d5565b6117dc9190612a12565b60016117e66107c4565b6117f09190612a12565b8486611d11909392919063ffffffff16565b905092915050565b5f611815848461159b565b90507fffffffffffffffffffffffffffffffffffffffffffffffffffffffffffffffff8110156118975781811015611888578281836040517ffb8f41b200000000000000000000000000000000000000000000000000000000815260040161187f93929190612c06565b60405180910390fd5b61189684848484035f611d5e565b5b50505050565b5f73ffffffffffffffffffffffffffffffffffffffff168373ffffffffffffffffffffffffffffffffffffffff160361190d575f6040517f96c6fd1e0000000000000000000000000000000000000000000000000000000081526004016119049190612766565b60405180910390fd5b5f73ffffffffffffffffffffffffffffffffffffffff168273ffffffffffffffffffffffffffffffffffffffff160361197d575f6040517fec442f050000000000000000000000000000000000000000000000000000000081526004016119749190612766565b60405180910390fd5b611988838383611f2d565b505050565b5f5f905090565b5f8113156119b9578060085f8282546119ad9190612a12565b925050819055506119db565b806119c390612bc0565b60085f8282546119d39190612b84565b925050819055505b50565b6119f16119e9610945565b853085612146565b6119fb83826121c8565b8273ffffffffffffffffffffffffffffffffffffffff168473ffffffffffffffffffffffffffffffffffffffff167fdcbc1c05240f31ff3ad067ef1ee35ce4997762752e3a095284754544f4c709d78484604051611a5a929190612f16565b60405180910390a350505050565b611a70611799565b73ffffffffffffffffffffffffffffffffffffffff16611a8e610d19565b73ffffffffffffffffffffffffffffffffffffffff1614611aed57611ab1611799565b6040517f118cdaa7000000000000000000000000000000000000000000000000000000008152600401611ae49190612766565b60405180910390fd5b565b5f60055f9054906101000a900473ffffffffffffffffffffffffffffffffffffffff1690508160055f6101000a81548173ffffffffffffffffffffffffffffffffffffffff021916908373ffffffffffffffffffffffffffffffffffffffff1602179055508173ffffffffffffffffffffffffffffffffffffffff168173ffffffffffffffffffffffffffffffffffffffff167f8be0079c531659141344cd1fd0a4f28419497f9722a3daafe3b4186f6b6457e060405160405180910390a35050565b8273ffffffffffffffffffffffffffffffffffffffff168573ffffffffffffffffffffffffffffffffffffffff1614611bf157611bf083868361180a565b5b611bfb8382612247565b611c0d611c06610945565b8584611c92565b8273ffffffffffffffffffffffffffffffffffffffff168473ffffffffffffffffffffffffffffffffffffffff168673ffffffffffffffffffffffffffffffffffffffff167ffbde797d201c681b91056529119e0b02407c7bb96a4a2c75c01fc9667232c8db8585604051611c83929190612f16565b60405180910390a45050505050565b611d0c838473ffffffffffffffffffffffffffffffffffffffff1663a9059cbb8585604051602401611cc5929190612f3d565b604051602081830303815290604052915060e01b6020820180517bffffffffffffffffffffffffffffffffffffffffffffffffffffffff83818316178352505050506122c6565b505050565b5f611d3f611d1e83612361565b8015611d3a57505f8480611d3557611d34612f64565b5b868809115b61238e565b611d4a868686612399565b611d549190612a12565b9050949350505050565b5f73ffffffffffffffffffffffffffffffffffffffff168473ffffffffffffffffffffffffffffffffffffffff1603611dce575f6040517fe602df05000000000000000000000000000000000000000000000000000000008152600401611dc59190612766565b60405180910390fd5b5f73ffffffffffffffffffffffffffffffffffffffff168373ffffffffffffffffffffffffffffffffffffffff1603611e3e575f6040517f94280d62000000000000000000000000000000000000000000000000000000008152600401611e359190612766565b60405180910390fd5b8160015f8673ffffffffffffffffffffffffffffffffffffffff1673ffffffffffffffffffffffffffffffffffffffff1681526020019081526020015f205f8573ffffffffffffffffffffffffffffffffffffffff1673ffffffffffffffffffffffffffffffffffffffff1681526020019081526020015f20819055508015611f27578273ffffffffffffffffffffffffffffffffffffffff168473ffffffffffffffffffffffffffffffffffffffff167f8c5be1e5ebec7d5bd14f71427d1e84f3dd0314c0f7b2291e5b200ac8c7c3b92584604051611f1e91906124d7565b60405180910390a35b50505050565b5f73ffffffffffffffffffffffffffffffffffffffff168373ffffffffffffffffffffffffffffffffffffffff1603611f7d578060025f828254611f719190612a12565b9250508190555061204b565b5f5f5f8573ffffffffffffffffffffffffffffffffffffffff1673ffffffffffffffffffffffffffffffffffffffff1681526020019081526020015f2054905081811015612006578381836040517fe450d38c000000000000000000000000000000000000000000000000000000008152600401611ffd93929190612c06565b60405180910390fd5b8181035f5f8673ffffffffffffffffffffffffffffffffffffffff1673ffffffffffffffffffffffffffffffffffffffff1681526020019081526020015f2081905550505b5f73ffffffffffffffffffffffffffffffffffffffff168273ffffffffffffffffffffffffffffffffffffffff1603612092578060025f82825403925050819055506120dc565b805f5f8473ffffffffffffffffffffffffffffffffffffffff1673ffffffffffffffffffffffffffffffffffffffff1681526020019081526020015f205f82825401925050819055505b8173ffffffffffffffffffffffffffffffffffffffff168373ffffffffffffffffffffffffffffffffffffffff167fddf252ad1be2c89b69c2b068fc378daa952ba7f163c4a11628f55a4df523b3ef8360405161213991906124d7565b60405180910390a3505050565b6121c2848573ffffffffffffffffffffffffffffffffffffffff166323b872dd86868660405160240161217b93929190612f91565b604051602081830303815290604052915060e01b6020820180517bffffffffffffffffffffffffffffffffffffffffffffffffffffffff83818316178352505050506122c6565b50505050565b5f73ffffffffffffffffffffffffffffffffffffffff168273ffffffffffffffffffffffffffffffffffffffff1603612238575f6040517fec442f0500000000000000000000000000000000000000000000000000000000815260040161222f9190612766565b60405180910390fd5b6122435f8383611f2d565b5050565b5f73ffffffffffffffffffffffffffffffffffffffff168273ffffffffffffffffffffffffffffffffffffffff16036122b7575f6040517f96c6fd1e0000000000000000000000000000000000000000000000000000000081526004016122ae9190612766565b60405180910390fd5b6122c2825f83611f2d565b5050565b5f5f60205f8451602086015f885af1806122e5576040513d5f823e3d81fd5b3d92505f519150505f82146122fe576001811415612319565b5f8473ffffffffffffffffffffffffffffffffffffffff163b145b1561235b57836040517f5274afe70000000000000000000000000000000000000000000000000000000081526004016123529190612766565b60405180910390fd5b50505050565b5f6001600283600381111561237957612378612fc6565b5b6123839190612ff3565b60ff16149050919050565b5f8115159050919050565b5f5f5f6123a68686612478565b915091505f82036123cb578381816123c1576123c0612f64565b5b0492505050612471565b8184116123ea576123e96123e45f861460126011612495565b6124ae565b5b5f8486880990508181118303925080820391505f855f038616905080860495508083049250600181825f0304019050808402831792505f600287600302189050808702600203810290508087026002038102905080870260020381029050808702600203810290508087026002038102905080870260020381029050808402955050505050505b9392505050565b5f5f5f198385098385029150818110828203039250509250929050565b5f61249f8461238e565b82841802821890509392505050565b634e487b715f52806020526024601cfd5b5f819050919050565b6124d1816124bf565b82525050565b5f6020820190506124ea5f8301846124c8565b92915050565b5f81519050919050565b5f82825260208201905092915050565b8281835e5f83830152505050565b5f601f19601f8301169050919050565b5f612532826124f0565b61253c81856124fa565b935061254c81856020860161250a565b61255581612518565b840191505092915050565b5f6020820190508181035f8301526125788184612528565b905092915050565b5f5ffd5b5f5ffd5b612591816124bf565b811461259b575f5ffd5b50565b5f813590506125ac81612588565b92915050565b5f602082840312156125c7576125c6612580565b5b5f6125d48482850161259e565b91505092915050565b5f73ffffffffffffffffffffffffffffffffffffffff82169050919050565b5f612606826125dd565b9050919050565b612616816125fc565b8114612620575f5ffd5b50565b5f813590506126318161260d565b92915050565b5f5f6040838503121561264d5761264c612580565b5b5f61265a85828601612623565b925050602061266b8582860161259e565b9150509250929050565b5f8115159050919050565b61268981612675565b82525050565b5f6020820190506126a25f830184612680565b92915050565b5f602082840312156126bd576126bc612580565b5b5f6126ca84828501612623565b91505092915050565b5f5f5f606084860312156126ea576126e9612580565b5b5f6126f786828701612623565b935050602061270886828701612623565b92505060406127198682870161259e565b9150509250925092565b5f60ff82169050919050565b61273881612723565b82525050565b5f6020820190506127515f83018461272f565b92915050565b612760816125fc565b82525050565b5f6020820190506127795f830184612757565b92915050565b5f5f6040838503121561279557612794612580565b5b5f6127a28582860161259e565b92505060206127b385828601612623565b9150509250929050565b5f819050919050565b5f6127e06127db6127d6846125dd565b6127bd565b6125dd565b9050919050565b5f6127f1826127c6565b9050919050565b5f612802826127e7565b9050919050565b612812816127f8565b82525050565b5f60208201905061282b5f830184612809565b92915050565b5f5ffd5b5f5ffd5b5f5ffd5b5f5f83601f84011261285257612851612831565b5b8235905067ffffffffffffffff81111561286f5761286e612835565b5b60208301915083600182028301111561288b5761288a612839565b5b9250929050565b5f5f5f604084860312156128a9576128a8612580565b5b5f6128b686828701612623565b935050602084013567ffffffffffffffff8111156128d7576128d6612584565b5b6128e38682870161283d565b92509250509250925092565b6128f881612675565b8114612902575f5ffd5b50565b5f81359050612913816128ef565b92915050565b5f5f6040838503121561292f5761292e612580565b5b5f61293c85828601612623565b925050602061294d85828601612905565b9150509250929050565b5f5f5f6060848603121561296e5761296d612580565b5b5f61297b8682870161259e565b935050602061298c86828701612623565b925050604061299d86828701612623565b9150509250925092565b5f5f604083850312156129bd576129bc612580565b5b5f6129ca85828601612623565b92505060206129db85828601612623565b9150509250929050565b7f4e487b71000000000000000000000000000000000000000000000000000000005f52601160045260245ffd5b5f612a1c826124bf565b9150612a27836124bf565b9250828201905080821115612a3f57612a3e6129e5565b5b92915050565b7f4e487b71000000000000000000000000000000000000000000000000000000005f52602260045260245ffd5b5f6002820490506001821680612a8957607f821691505b602082108103612a9c57612a9b612a45565b5b50919050565b5f612aac82612723565b9150612ab783612723565b9250828201905060ff811115612ad057612acf6129e5565b5b92915050565b5f7fffffffff0000000000000000000000000000000000000000000000000000000082169050919050565b612b0a81612ad6565b82525050565b5f606082019050612b235f830186612757565b612b306020830185612757565b612b3d6040830184612b01565b949350505050565b5f81519050612b53816128ef565b92915050565b5f60208284031215612b6e57612b6d612580565b5b5f612b7b84828501612b45565b91505092915050565b5f612b8e826124bf565b9150612b99836124bf565b9250828203905081811115612bb157612bb06129e5565b5b92915050565b5f819050919050565b5f612bca82612bb7565b91507f80000000000000000000000000000000000000000000000000000000000000008203612bfc57612bfb6129e5565b5b815f039050919050565b5f606082019050612c195f830186612757565b612c2660208301856124c8565b612c3360408301846124c8565b949350505050565b5f5ffd5b5f5ffd5b5f5f85851115612c5657612c55612c3b565b5b83861115612c6757612c66612c3f565b5b6001850283019150848603905094509492505050565b5f82905092915050565b5f82821b905092915050565b5f612c9e8383612c7d565b82612ca98135612ad6565b92506004821015612ce957612ce47fffffffff0000000000000000000000000000000000000000000000000000000083600403600802612c87565b831692505b505092915050565b5f81905092915050565b828183375f83830152505050565b5f612d148385612cf1565b9350612d21838584612cfb565b82840190509392505050565b5f612d39828486612d09565b91508190509392505050565b5f602082019050612d585f830184612b01565b92915050565b5f81519050612d6c81612588565b92915050565b5f60208284031215612d8757612d86612580565b5b5f612d9484828501612d5e565b91505092915050565b5f8160011c9050919050565b5f5f8291508390505b6001851115612df257808604811115612dce57612dcd6129e5565b5b6001851615612ddd5780820291505b8081029050612deb85612d9d565b9450612db2565b94509492505050565b5f82612e0a5760019050612ec5565b81612e17575f9050612ec5565b8160018114612e2d5760028114612e3757612e66565b6001915050612ec5565b60ff841115612e4957612e486129e5565b5b8360020a915084821115612e6057612e5f6129e5565b5b50612ec5565b5060208310610133831016604e8410600b8410161715612e9b5782820a905083811115612e9657612e956129e5565b5b612ec5565b612ea88484846001612da9565b92509050818404811115612ebf57612ebe6129e5565b5b81810290505b9392505050565b5f612ed6826124bf565b9150612ee183612723565b9250612f0e7fffffffffffffffffffffffffffffffffffffffffffffffffffffffffffffffff8484612dfb565b905092915050565b5f604082019050612f295f8301856124c8565b612f3660208301846124c8565b9392505050565b5f604082019050612f505f830185612757565b612f5d60208301846124c8565b9392505050565b7f4e487b71000000000000000000000000000000000000000000000000000000005f52601260045260245ffd5b5f606082019050612fa45f830186612757565b612fb16020830185612757565b612fbe60408301846124c8565b949350505050565b7f4e487b71000000000000000000000000000000000000000000000000000000005f52602160045260245ffd5b5f612ffd82612723565b915061300883612723565b92508261301857613017612f64565b5b82820690509291505056fea2646970667358221220e6d4fc2a28f5ac816594a63d935e09a26f6b1b20c4822b04298e03ddafb244aa64736f6c634300081c0033",
  "linkReferences": {},
  "deployedLinkReferences": {},
  "immutableReferences": {
    "1160": [
      {
        "length": 32,
        "start": 2376
      }
    ],
    "1162": [
      {
        "length": 32,
        "start": 2327
      }
    ],
    "8209": [
      {
        "length": 32,
        "start": 2601
      },
      {
        "length": 32,
        "start": 3319
      },
      {
        "length": 32,
        "start": 3857
      },
      {
        "length": 32,
        "start": 4720
      }
    ]
  },
  "inputSourceName": "project/contracts/Vault.sol",
  "buildInfoId": "solc-0_8_28-fb0be2818cc61b16db2f8dd24da1e2fe22fc7102"
}