{
  "_format": "hh-sol-artifact-1",
  "contractName": "AaveAdapter",
  "sourceName": "contracts/AaveAdapter.sol",
  "abi": [
    {
      "inputs": [
        {
          "internalType": "address",
          "name": "_usdc",
          "type": "address"
        },
        {
          "internalType": "address",
          "name": "_aUSDC",
          "type": "address"
        },
        {
          "internalType": "address",
          "name": "_aavePool",
          "type": "address"
        }
      ],
      "stateMutability": "nonpayable",
      "type": "constructor"
    },
    {
      "anonymous": false,
      "inputs": [
        {
          "indexed": false,
          "internalType": "uint256",
          "name": "aTokenBalance",
          "type": "uint256"
        },
        {
          "indexed": false,
          "internalType": "uint256",
          "name": "timestamp",
          "type": "uint256"
        }
      ],
      "name": "BalanceReported",
      "type": "event"
    },
    {
      "anonymous": false,
      "inputs": [
        {
          "indexed": false,
          "internalType": "uint256",
          "name": "amount",
          "type": "uint256"
        },
        {
          "indexed": false,
          "internalType": "uint256",
          "name": "timestamp",
          "type": "uint256"
        }
      ],
      "name": "YieldDeployed",
      "type": "event"
    },
    {
      "inputs": [],
      "name": "aUSDC",
      "outputs": [
        {
          "internalType": "contract IERC20",
          "name": "",
          "type": "address"
        }
      ],
      "stateMutability": "view",
      "type": "function"
    },
    {
      "inputs": [],
      "name": "aavePool",
      "outputs": [
        {
          "internalType": "contract IAavePool",
          "name": "",
          "type": "address"
        }
      ],
      "stateMutability": "view",
      "type": "function"
    },
    {
      "inputs": [
        {
          "internalType": "uint256",
          "name": "amount",
          "type": "uint256"
        }
      ],
      "name": "deposit",
      "outputs": [],
      "stateMutability": "nonpayable",
      "type": "function"
    },
    {
      "inputs": [],
      "name": "getBalance",
      "outputs": [
        {
          "internalType": "uint256",
          "name": "",
          "type": "uint256"
        }
      ],
      "stateMutability": "view",
      "type": "function"
    },
    {
      "inputs": [],
      "name": "usdc",
      "outputs": [
        {
          "internalType": "contract IERC20",
          "name": "",
          "type": "address"
        }
      ],
      "stateMutability": "view",
      "type": "function"
    }
  ],
  "bytecode": "0x60e060405234801561001057600080fd5b506040516109a83803806109a883398181016040528101906100329190610139565b8273ffffffffffffffffffffffffffffffffffffffff1660808173ffffffffffffffffffffffffffffffffffffffff16815250508173ffffffffffffffffffffffffffffffffffffffff1660a08173ffffffffffffffffffffffffffffffffffffffff16815250508073ffffffffffffffffffffffffffffffffffffffff1660c08173ffffffffffffffffffffffffffffffffffffffff168152505050505061018c565b600080fd5b600073ffffffffffffffffffffffffffffffffffffffff82169050919050565b6000610106826100db565b9050919050565b610116816100fb565b811461012157600080fd5b50565b6000815190506101338161010d565b92915050565b600080600060608486031215610152576101516100d6565b5b600061016086828701610124565b935050602061017186828701610124565b925050604061018286828701610124565b9150509250925092565b60805160a05160c0516107cb6101dd600039600081816101db0152818161027e015261030101526000818160f401526101b701526000818161019301528181610242015261033d01526107cb6000f3fe608060405234801561001057600080fd5b50600436106100575760003560e01c806312065fe01461005c5780633e413bee1461007a578063559fda3314610098578063a03e4bc3146100b6578063b6b55f25146100d4575b600080fd5b6100646100f0565b6040516100719190610406565b60405180910390f35b610082610191565b60405161008f91906104a0565b60405180910390f35b6100a06101b5565b6040516100ad91906104a0565b60405180910390f35b6100be6101d9565b6040516100cb91906104dc565b60405180910390f35b6100ee60048036038101906100e99190610528565b6101fd565b005b60007f000000000000000000000000000000000000000000000000000000000000000073ffffffffffffffffffffffffffffffffffffffff166370a08231306040518263ffffffff1660e01b815260040161014b9190610576565b602060405180830381865afa158015610168573d6000803e3d6000fd5b505050506040513d601f19601f8201168201806040525081019061018c91906105a6565b905090565b7f000000000000000000000000000000000000000000000000000000000000000081565b7f000000000000000000000000000000000000000000000000000000000000000081565b7f000000000000000000000000000000000000000000000000000000000000000081565b60008111610240576040517f08c379a000000000000000000000000000000000000000000000000000000000815260040161023790610630565b60405180910390fd5b7f000000000000000000000000000000000000000000000000000000000000000073ffffffffffffffffffffffffffffffffffffffff1663095ea7b37f0000000000000000000000000000000000000000000000000000000000000000836040518363ffffffff1660e01b81526004016102bb929190610650565b6020604051808303816000875af11580156102da573d6000803e3d6000fd5b505050506040513d601f19601f820116820180604052508101906102fe91906106b1565b507f000000000000000000000000000000000000000000000000000000000000000073ffffffffffffffffffffffffffffffffffffffff1663617ba0377f0000000000000000000000000000000000000000000000000000000000000000833060006040518563ffffffff1660e01b815260040161037f9493929190610727565b600060405180830381600087803b15801561039957600080fd5b505af11580156103ad573d6000803e3d6000fd5b505050507fe8ac7fdd4e37826b89f01ebf744a8ab0abf993ebf28e40e35fa0ecfc50cbc2a981426040516103e292919061076c565b60405180910390a150565b6000819050919050565b610400816103ed565b82525050565b600060208201905061041b60008301846103f7565b92915050565b600073ffffffffffffffffffffffffffffffffffffffff82169050919050565b6000819050919050565b600061046661046161045c84610421565b610441565b610421565b9050919050565b60006104788261044b565b9050919050565b600061048a8261046d565b9050919050565b61049a8161047f565b82525050565b60006020820190506104b56000830184610491565b92915050565b60006104c68261046d565b9050919050565b6104d6816104bb565b82525050565b60006020820190506104f160008301846104cd565b92915050565b600080fd5b610505816103ed565b811461051057600080fd5b50565b600081359050610522816104fc565b92915050565b60006020828403121561053e5761053d6104f7565b5b600061054c84828501610513565b91505092915050565b600061056082610421565b9050919050565b61057081610555565b82525050565b600060208201905061058b6000830184610567565b92915050565b6000815190506105a0816104fc565b92915050565b6000602082840312156105bc576105bb6104f7565b5b60006105ca84828501610591565b91505092915050565b600082825260208201905092915050565b7f616d6f756e74203d203000000000000000000000000000000000000000000000600082015250565b600061061a600a836105d3565b9150610625826105e4565b602082019050919050565b600060208201905081810360008301526106498161060d565b9050919050565b60006040820190506106656000830185610567565b61067260208301846103f7565b9392505050565b60008115159050919050565b61068e81610679565b811461069957600080fd5b50565b6000815190506106ab81610685565b92915050565b6000602082840312156106c7576106c66104f7565b5b60006106d58482850161069c565b91505092915050565b6000819050919050565b600061ffff82169050919050565b600061071161070c610707846106de565b610441565b6106e8565b9050919050565b610721816106f6565b82525050565b600060808201905061073c6000830187610567565b61074960208301866103f7565b6107566040830185610567565b6107636060830184610718565b95945050505050565b600060408201905061078160008301856103f7565b61078e60208301846103f7565b939250505056fea2646970667358221220ccde3223e4ea9227651bfcb1b445b33cd4b4bddf8de2ab231c752748b7d6da0464736f6c634300081c0033",
  "linkReferences": {},
  "deployedLinkReferences": {}
}