{
  "_format": "hh-sol-artifact-1",
  "contractName": "PoolVault",
  "sourceName": "contracts/PoolVault.sol",
  "abi": [
    {
      "inputs": [
        {
          "internalType": "address",
          "name": "_usdc",
          "type": "address"
        },
        {
          "internalType": "uint256",
          "name": "_threshold",
          "type": "uint256"
        },
        {
          "internalType": "address",
          "name": "relayer",
          "type": "address"
        }
      ],
      "stateMutability": "nonpayable",
      "type": "constructor"
    },
    {
      "inputs": [],
      "name": "AccessControlBadConfirmation",
      "type": "error"
    },
    {
      "inputs": [
        {
          "internalType": "address",
          "name": "account",
          "type": "address"
        },
        {
          "internalType": "bytes32",
          "name": "neededRole",
          "type": "bytes32"
        }
      ],
      "name": "AccessControlUnauthorizedAccount",
      "type": "error"
    },
    {
      "anonymous": false,
      "inputs": [
        {
          "indexed": false,
          "internalType": "uint256",
          "name": "amount",
          "type": "uint256"
        }
      ],
      "name": "DeploymentRequested",
      "type": "event"
    },
    {
      "anonymous": false,
      "inputs": [
        {
          "indexed": true,
          "internalType": "address",
          "name": "user",
          "type": "address"
        },
        {
          "indexed": false,
          "internalType": "uint256",
          "name": "amount",
          "type": "uint256"
        },
        {
          "indexed": false,
          "internalType": "uint256",
          "name": "sharesMinted",
          "type": "uint256"
        }
      ],
      "name": "Deposit",
      "type": "event"
    },
    {
      "anonymous": false,
      "inputs": [
        {
          "indexed": false,
          "internalType": "uint256",
          "name": "oldNAV",
          "type": "uint256"
        },
        {
          "indexed": false,
          "internalType": "uint256",
          "name": "newNAV",
          "type": "uint256"
        }
      ],
      "name": "NAVUpdated",
      "type": "event"
    },
    {
      "anonymous": false,
      "inputs": [
        {
          "indexed": true,
          "internalType": "bytes32",
          "name": "role",
          "type": "bytes32"
        },
        {
          "indexed": true,
          "internalType": "bytes32",
          "name": "previousAdminRole",
          "type": "bytes32"
        },
        {
          "indexed": true,
          "internalType": "bytes32",
          "name": "newAdminRole",
          "type": "bytes32"
        }
      ],
      "name": "RoleAdminChanged",
      "type": "event"
    },
    {
      "anonymous": false,
      "inputs": [
        {
          "indexed": true,
          "internalType": "bytes32",
          "name": "role",
          "type": "bytes32"
        },
        {
          "indexed": true,
          "internalType": "address",
          "name": "account",
          "type": "address"
        },
        {
          "indexed": true,
          "internalType": "address",
          "name": "sender",
          "type": "address"
        }
      ],
      "name": "RoleGranted",
      "type": "event"
    },
    {
      "anonymous": false,
      "inputs": [
        {
          "indexed": true,
          "internalType": "bytes32",
          "name": "role",
          "type": "bytes32"
        },
        {
          "indexed": true,
          "internalType": "address",
          "name": "account",
          "type": "address"
        },
        {
          "indexed": true,
          "internalType": "address",
          "name": "sender",
          "type": "address"
        }
      ],
      "name": "RoleRevoked",
      "type": "event"
    },
    {
      "inputs": [],
      "name": "DEFAULT_ADMIN_ROLE",
      "outputs": [
        {
          "internalType": "bytes32",
          "name": "",
          "type": "bytes32"
        }
      ],
      "stateMutability": "view",
      "type": "function"
    },
    {
      "inputs": [],
      "name": "RELAYER_ROLE",
      "outputs": [
        {
          "internalType": "bytes32",
          "name": "",
          "type": "bytes32"
        }
      ],
      "stateMutability": "view",
      "type": "function"
    },
    {
      "inputs": [],
      "name": "activatePool",
      "outputs": [],
      "stateMutability": "nonpayable",
      "type": "function"
    },
    {
      "inputs": [
        {
          "internalType": "address",
          "name": "user",
          "type": "address"
        }
      ],
      "name": "balanceOf",
      "outputs": [
        {
          "internalType": "uint256",
          "name": "",
          "type": "uint256"
        }
      ],
      "stateMutability": "view",
      "type": "function"
    },
    {
      "inputs": [
        {
          "internalType": "uint256",
          "name": "shareAmount",
          "type": "uint256"
        }
      ],
      "name": "convertToAssets",
      "outputs": [
        {
          "internalType": "uint256",
          "name": "",
          "type": "uint256"
        }
      ],
      "stateMutability": "view",
      "type": "function"
    },
    {
      "inputs": [
        {
          "internalType": "uint256",
          "name": "amount",
          "type": "uint256"
        }
      ],
      "name": "deposit",
      "outputs": [],
      "stateMutability": "nonpayable",
      "type": "function"
    },
    {
      "inputs": [
        {
          "internalType": "address",
          "name": "user",
          "type": "address"
        },
        {
          "internalType": "uint256",
          "name": "amount",
          "type": "uint256"
        }
      ],
      "name": "depositFor",
      "outputs": [],
      "stateMutability": "nonpayable",
      "type": "function"
    },
    {
      "inputs": [
        {
          "internalType": "bytes32",
          "name": "role",
          "type": "bytes32"
        }
      ],
      "name": "getRoleAdmin",
      "outputs": [
        {
          "internalType": "bytes32",
          "name": "",
          "type": "bytes32"
        }
      ],
      "stateMutability": "view",
      "type": "function"
    },
    {
      "inputs": [
        {
          "internalType": "bytes32",
          "name": "role",
          "type": "bytes32"
        },
        {
          "internalType": "address",
          "name": "account",
          "type": "address"
        }
      ],
      "name": "grantRole",
      "outputs": [],
      "stateMutability": "nonpayable",
      "type": "function"
    },
    {
      "inputs": [
        {
          "internalType": "bytes32",
          "name": "role",
          "type": "bytes32"
        },
        {
          "internalType": "address",
          "name": "account",
          "type": "address"
        }
      ],
      "name": "hasRole",
      "outputs": [
        {
          "internalType": "bool",
          "name": "",
          "type": "bool"
        }
      ],
      "stateMutability": "view",
      "type": "function"
    },
    {
      "inputs": [],
      "name": "nav",
      "outputs": [
        {
          "internalType": "uint256",
          "name": "",
          "type": "uint256"
        }
      ],
      "stateMutability": "view",
      "type": "function"
    },
    {
      "inputs": [
        {
          "internalType": "bytes32",
          "name": "role",
          "type": "bytes32"
        },
        {
          "internalType": "address",
          "name": "callerConfirmation",
          "type": "address"
        }
      ],
      "name": "renounceRole",
      "outputs": [],
      "stateMutability": "nonpayable",
      "type": "function"
    },
    {
      "inputs": [
        {
          "internalType": "bytes32",
          "name": "role",
          "type": "bytes32"
        },
        {
          "internalType": "address",
          "name": "account",
          "type": "address"
        }
      ],
      "name": "revokeRole",
      "outputs": [],
      "stateMutability": "nonpayable",
      "type": "function"
    },
    {
      "inputs": [
        {
          "internalType": "address",
          "name": "",
          "type": "address"
        }
      ],
      "name": "shares",
      "outputs": [
        {
          "internalType": "uint256",
          "name": "",
          "type": "uint256"
        }
      ],
      "stateMutability": "view",
      "type": "function"
    },
    {
      "inputs": [],
      "name": "state",
      "outputs": [
        {
          "internalType": "enum PoolVault.State",
          "name": "",
          "type": "uint8"
        }
      ],
      "stateMutability": "view",
      "type": "function"
    },
    {
      "inputs": [
        {
          "internalType": "bytes4",
          "name": "interfaceId",
          "type": "bytes4"
        }
      ],
      "name": "supportsInterface",
      "outputs": [
        {
          "internalType": "bool",
          "name": "",
          "type": "bool"
        }
      ],
      "stateMutability": "view",
      "type": "function"
    },
    {
      "inputs": [],
      "name": "threshold",
      "outputs": [
        {
          "internalType": "uint256",
          "name": "",
          "type": "uint256"
        }
      ],
      "stateMutability": "view",
      "type": "function"
    },
    {
      "inputs": [],
      "name": "totalAssets",
      "outputs": [
        {
          "internalType": "uint256",
          "name": "",
          "type": "uint256"
        }
      ],
      "stateMutability": "view",
      "type": "function"
    },
    {
      "inputs": [],
      "name": "totalShares",
      "outputs": [
        {
          "internalType": "uint256",
          "name": "",
          "type": "uint256"
        }
      ],
      "stateMutability": "view",
      "type": "function"
    },
    {
      "inputs": [
        {
          "internalType": "uint256",
          "name": "newNAV",
          "type": "uint256"
        }
      ],
      "name": "updateNAV",
      "outputs": [],
      "stateMutability": "nonpayable",
      "type": "function"
    },
    {
      "inputs": [],
      "name": "usdc",
      "outputs": [
        {
          "internalType": "contract IERC20",
          "name": "",
          "type": "address"
        }
      ],
      "stateMutability": "view",
      "type": "function"
    }
  ],
  "bytecode": "0x60a060405234801561001057600080fd5b50604051611c8e380380611c8e833981810160405281019061003291906102ed565b8273ffffffffffffffffffffffffffffffffffffffff1660808173ffffffffffffffffffffffffffffffffffffffff1681525050816004819055506000600160006101000a81548160ff0219169083600181111561009357610092610340565b5b02179055506100ab6000801b336100e560201b60201c565b506100dc7fe2b7fb3b832174769106daebcfd6d1970523240dda11281102db9363b83b0dc4826100e560201b60201c565b5050505061036f565b60006100f783836101e260201b60201c565b6101d757600160008085815260200190815260200160002060000160008473ffffffffffffffffffffffffffffffffffffffff1673ffffffffffffffffffffffffffffffffffffffff16815260200190815260200160002060006101000a81548160ff02191690831515021790555061017461024c60201b60201c565b73ffffffffffffffffffffffffffffffffffffffff168273ffffffffffffffffffffffffffffffffffffffff16847f2f8788117e7eff1d82e926ec794901d17c78024a50270940304540a733656f0d60405160405180910390a4600190506101dc565b600090505b92915050565b600080600084815260200190815260200160002060000160008373ffffffffffffffffffffffffffffffffffffffff1673ffffffffffffffffffffffffffffffffffffffff16815260200190815260200160002060009054906101000a900460ff16905092915050565b600033905090565b600080fd5b600073ffffffffffffffffffffffffffffffffffffffff82169050919050565b600061028482610259565b9050919050565b61029481610279565b811461029f57600080fd5b50565b6000815190506102b18161028b565b92915050565b6000819050919050565b6102ca816102b7565b81146102d557600080fd5b50565b6000815190506102e7816102c1565b92915050565b60008060006060848603121561030657610305610254565b5b6000610314868287016102a2565b9350506020610325868287016102d8565b9250506040610336868287016102a2565b9150509250925092565b7f4e487b7100000000000000000000000000000000000000000000000000000000600052602160045260246000fd5b6080516118f6610398600039600081816106c4015281816108d10152610be101526118f66000f3fe608060405234801561001057600080fd5b50600436106101375760003560e01c806342cde4e8116100b8578063a8e67bfc1161007c578063a8e67bfc14610350578063b6b55f251461035a578063c1590cd714610376578063c19d93fb14610394578063ce7c2ac2146103b2578063d547741f146103e257610137565b806342cde4e81461029657806370a08231146102b457806391d14854146102e4578063926d7d7f14610314578063a217fddf1461033257610137565b80632f2ff15d116100ff5780632f2ff15d146102065780632f4f21e21461022257806336568abe1461023e5780633a98ef391461025a5780633e413bee1461027857610137565b806301e1d1141461013c57806301ffc9a71461015a57806307a2d13a1461018a5780630cb1982b146101ba578063248a9ca3146101d6575b600080fd5b6101446103fe565b60405161015191906110c5565b60405180910390f35b610174600480360381019061016f919061113d565b610408565b6040516101819190611185565b60405180910390f35b6101a4600480360381019061019f91906111cc565b610482565b6040516101b191906110c5565b60405180910390f35b6101d460048036038101906101cf91906111cc565b6104b9565b005b6101f060048036038101906101eb919061122f565b61052f565b6040516101fd919061126b565b60405180910390f35b610220600480360381019061021b91906112e4565b61054e565b005b61023c60048036038101906102379190611324565b610570565b005b610258600480360381019061025391906112e4565b61084e565b005b6102626108c9565b60405161026f91906110c5565b60405180910390f35b6102806108cf565b60405161028d91906113c3565b60405180910390f35b61029e6108f3565b6040516102ab91906110c5565b60405180910390f35b6102ce60048036038101906102c991906113de565b6108f9565b6040516102db91906110c5565b60405180910390f35b6102fe60048036038101906102f991906112e4565b61096f565b60405161030b9190611185565b60405180910390f35b61031c6109d9565b604051610329919061126b565b60405180910390f35b61033a6109fd565b604051610347919061126b565b60405180910390f35b610358610a04565b005b610374600480360381019061036f91906111cc565b610b26565b005b61037e610d69565b60405161038b91906110c5565b60405180910390f35b61039c610d6f565b6040516103a99190611482565b60405180910390f35b6103cc60048036038101906103c791906113de565b610d82565b6040516103d991906110c5565b60405180910390f35b6103fc60048036038101906103f791906112e4565b610d9a565b005b6000600354905090565b60007f7965db0b000000000000000000000000000000000000000000000000000000007bffffffffffffffffffffffffffffffffffffffffffffffffffffffff1916827bffffffffffffffffffffffffffffffffffffffffffffffffffffffff1916148061047b575061047a82610dbc565b5b9050919050565b6000806002540361049657600090506104b4565b600254600354836104a791906114cc565b6104b1919061153d565b90505b919050565b7fe2b7fb3b832174769106daebcfd6d1970523240dda11281102db9363b83b0dc46104e381610e26565b60006003549050826003819055507f224bbf4ba043354bee6487d05aa90892db4426afe8e3aa79007d0eae1b985ebc818460405161052292919061156e565b60405180910390a1505050565b6000806000838152602001908152602001600020600101549050919050565b6105578261052f565b61056081610e26565b61056a8383610e3a565b50505050565b7fe2b7fb3b832174769106daebcfd6d1970523240dda11281102db9363b83b0dc461059a81610e26565b600060018111156105ae576105ad61140b565b5b600160009054906101000a900460ff1660018111156105d0576105cf61140b565b5b14610610576040517f08c379a0000000000000000000000000000000000000000000000000000000008152600401610607906115f4565b60405180910390fd5b600073ffffffffffffffffffffffffffffffffffffffff168373ffffffffffffffffffffffffffffffffffffffff160361067f576040517f08c379a000000000000000000000000000000000000000000000000000000000815260040161067690611660565b60405180910390fd5b600082116106c2576040517f08c379a00000000000000000000000000000000000000000000000000000000081526004016106b9906116cc565b60405180910390fd5b7f000000000000000000000000000000000000000000000000000000000000000073ffffffffffffffffffffffffffffffffffffffff166323b872dd3330856040518463ffffffff1660e01b815260040161071f939291906116fb565b6020604051808303816000875af115801561073e573d6000803e3d6000fd5b505050506040513d601f19601f82011682018060405250810190610762919061175e565b50600061076e83610f2b565b905080600560008673ffffffffffffffffffffffffffffffffffffffff1673ffffffffffffffffffffffffffffffffffffffff16815260200190815260200160002060008282546107bf919061178b565b9250508190555080600260008282546107d8919061178b565b9250508190555082600360008282546107f1919061178b565b925050819055508373ffffffffffffffffffffffffffffffffffffffff167f90890809c654f11d6e72a28fa60149770a0d11ec6c92319d6ceb2bb0a4ea1a15848360405161084092919061156e565b60405180910390a250505050565b610856610f61565b73ffffffffffffffffffffffffffffffffffffffff168173ffffffffffffffffffffffffffffffffffffffff16146108ba576040517f6697b23200000000000000000000000000000000000000000000000000000000815260040160405180910390fd5b6108c48282610f69565b505050565b60025481565b7f000000000000000000000000000000000000000000000000000000000000000081565b60045481565b6000806002540361090d576000905061096a565b600254600354600560008573ffffffffffffffffffffffffffffffffffffffff1673ffffffffffffffffffffffffffffffffffffffff1681526020019081526020016000205461095d91906114cc565b610967919061153d565b90505b919050565b600080600084815260200190815260200160002060000160008373ffffffffffffffffffffffffffffffffffffffff1673ffffffffffffffffffffffffffffffffffffffff16815260200190815260200160002060009054906101000a900460ff16905092915050565b7fe2b7fb3b832174769106daebcfd6d1970523240dda11281102db9363b83b0dc481565b6000801b81565b60006001811115610a1857610a1761140b565b5b600160009054906101000a900460ff166001811115610a3a57610a3961140b565b5b14610a7a576040517f08c379a0000000000000000000000000000000000000000000000000000000008152600401610a719061180b565b60405180910390fd5b6004546003541015610ac1576040517f08c379a0000000000000000000000000000000000000000000000000000000008152600401610ab890611877565b60405180910390fd5b60018060006101000a81548160ff02191690836001811115610ae657610ae561140b565b5b02179055507f44a259e3e7e31b93cc71393bbc34d002f415e880d145234ec4bdd9ef0f0afaeb600354604051610b1c91906110c5565b60405180910390a1565b60006001811115610b3a57610b3961140b565b5b600160009054906101000a900460ff166001811115610b5c57610b5b61140b565b5b14610b9c576040517f08c379a0000000000000000000000000000000000000000000000000000000008152600401610b93906115f4565b60405180910390fd5b60008111610bdf576040517f08c379a0000000000000000000000000000000000000000000000000000000008152600401610bd6906116cc565b60405180910390fd5b7f000000000000000000000000000000000000000000000000000000000000000073ffffffffffffffffffffffffffffffffffffffff166323b872dd3330846040518463ffffffff1660e01b8152600401610c3c939291906116fb565b6020604051808303816000875af1158015610c5b573d6000803e3d6000fd5b505050506040513d601f19601f82011682018060405250810190610c7f919061175e565b506000610c8b82610f2b565b905080600560003373ffffffffffffffffffffffffffffffffffffffff1673ffffffffffffffffffffffffffffffffffffffff1681526020019081526020016000206000828254610cdc919061178b565b925050819055508060026000828254610cf5919061178b565b925050819055508160036000828254610d0e919061178b565b925050819055503373ffffffffffffffffffffffffffffffffffffffff167f90890809c654f11d6e72a28fa60149770a0d11ec6c92319d6ceb2bb0a4ea1a158383604051610d5d92919061156e565b60405180910390a25050565b60035481565b600160009054906101000a900460ff1681565b60056020528060005260406000206000915090505481565b610da38261052f565b610dac81610e26565b610db68383610f69565b50505050565b60007f01ffc9a7000000000000000000000000000000000000000000000000000000007bffffffffffffffffffffffffffffffffffffffffffffffffffffffff1916827bffffffffffffffffffffffffffffffffffffffffffffffffffffffff1916149050919050565b610e3781610e32610f61565b61105b565b50565b6000610e46838361096f565b610f2057600160008085815260200190815260200160002060000160008473ffffffffffffffffffffffffffffffffffffffff1673ffffffffffffffffffffffffffffffffffffffff16815260200190815260200160002060006101000a81548160ff021916908315150217905550610ebd610f61565b73ffffffffffffffffffffffffffffffffffffffff168273ffffffffffffffffffffffffffffffffffffffff16847f2f8788117e7eff1d82e926ec794901d17c78024a50270940304540a733656f0d60405160405180910390a460019050610f25565b600090505b92915050565b60008060025403610f3e57819050610f5c565b60035460025483610f4f91906114cc565b610f59919061153d565b90505b919050565b600033905090565b6000610f75838361096f565b1561105057600080600085815260200190815260200160002060000160008473ffffffffffffffffffffffffffffffffffffffff1673ffffffffffffffffffffffffffffffffffffffff16815260200190815260200160002060006101000a81548160ff021916908315150217905550610fed610f61565b73ffffffffffffffffffffffffffffffffffffffff168273ffffffffffffffffffffffffffffffffffffffff16847ff6391f5c32d9c69d2a47ea670b442974b53935d1edc7fd64eb21e047a839171b60405160405180910390a460019050611055565b600090505b92915050565b611065828261096f565b6110a85780826040517fe2517d3f00000000000000000000000000000000000000000000000000000000815260040161109f929190611897565b60405180910390fd5b5050565b6000819050919050565b6110bf816110ac565b82525050565b60006020820190506110da60008301846110b6565b92915050565b600080fd5b60007fffffffff0000000000000000000000000000000000000000000000000000000082169050919050565b61111a816110e5565b811461112557600080fd5b50565b60008135905061113781611111565b92915050565b600060208284031215611153576111526110e0565b5b600061116184828501611128565b91505092915050565b60008115159050919050565b61117f8161116a565b82525050565b600060208201905061119a6000830184611176565b92915050565b6111a9816110ac565b81146111b457600080fd5b50565b6000813590506111c6816111a0565b92915050565b6000602082840312156111e2576111e16110e0565b5b60006111f0848285016111b7565b91505092915050565b6000819050919050565b61120c816111f9565b811461121757600080fd5b50565b60008135905061122981611203565b92915050565b600060208284031215611245576112446110e0565b5b60006112538482850161121a565b91505092915050565b611265816111f9565b82525050565b6000602082019050611280600083018461125c565b92915050565b600073ffffffffffffffffffffffffffffffffffffffff82169050919050565b60006112b182611286565b9050919050565b6112c1816112a6565b81146112cc57600080fd5b50565b6000813590506112de816112b8565b92915050565b600080604083850312156112fb576112fa6110e0565b5b60006113098582860161121a565b925050602061131a858286016112cf565b9150509250929050565b6000806040838503121561133b5761133a6110e0565b5b6000611349858286016112cf565b925050602061135a858286016111b7565b9150509250929050565b6000819050919050565b600061138961138461137f84611286565b611364565b611286565b9050919050565b600061139b8261136e565b9050919050565b60006113ad82611390565b9050919050565b6113bd816113a2565b82525050565b60006020820190506113d860008301846113b4565b92915050565b6000602082840312156113f4576113f36110e0565b5b6000611402848285016112cf565b91505092915050565b7f4e487b7100000000000000000000000000000000000000000000000000000000600052602160045260246000fd5b6002811061144b5761144a61140b565b5b50565b600081905061145c8261143a565b919050565b600061146c8261144e565b9050919050565b61147c81611461565b82525050565b60006020820190506114976000830184611473565b92915050565b7f4e487b7100000000000000000000000000000000000000000000000000000000600052601160045260246000fd5b60006114d7826110ac565b91506114e2836110ac565b92508282026114f0816110ac565b915082820484148315176115075761150661149d565b5b5092915050565b7f4e487b7100000000000000000000000000000000000000000000000000000000600052601260045260246000fd5b6000611548826110ac565b9150611553836110ac565b9250826115635761156261150e565b5b828204905092915050565b600060408201905061158360008301856110b6565b61159060208301846110b6565b9392505050565b600082825260208201905092915050565b7f506f6f6c20616c72656164792061637469766500000000000000000000000000600082015250565b60006115de601383611597565b91506115e9826115a8565b602082019050919050565b6000602082019050818103600083015261160d816115d1565b9050919050565b7f496e76616c696420757365720000000000000000000000000000000000000000600082015250565b600061164a600c83611597565b915061165582611614565b602082019050919050565b600060208201905081810360008301526116798161163d565b9050919050565b7f496e76616c696420616d6f756e74000000000000000000000000000000000000600082015250565b60006116b6600e83611597565b91506116c182611680565b602082019050919050565b600060208201905081810360008301526116e5816116a9565b9050919050565b6116f5816112a6565b82525050565b600060608201905061171060008301866116ec565b61171d60208301856116ec565b61172a60408301846110b6565b949350505050565b61173b8161116a565b811461174657600080fd5b50565b60008151905061175881611732565b92915050565b600060208284031215611774576117736110e0565b5b600061178284828501611749565b91505092915050565b6000611796826110ac565b91506117a1836110ac565b92508282019050808211156117b9576117b861149d565b5b92915050565b7f416c726561647920616374697665000000000000000000000000000000000000600082015250565b60006117f5600e83611597565b9150611800826117bf565b602082019050919050565b60006020820190508181036000830152611824816117e8565b9050919050565b7f5468726573686f6c64206e6f74206d6574000000000000000000000000000000600082015250565b6000611861601183611597565b915061186c8261182b565b602082019050919050565b6000602082019050818103600083015261189081611854565b9050919050565b60006040820190506118ac60008301856116ec565b6118b9602083018461125c565b939250505056fea2646970667358221220be401f89659c11501fd00f7e3d554acf96ac312c75e736210b6282f96445036f64736f6c634300081c0033",
  "linkReferences": {},
  "deployedLinkReferences": {}
}